{
	"contracts/SmartMoneyProject.sol": {
		"SmartMoneyProject": {
			"abi": [
				{
					"inputs": [],
					"name": "balanceReceived",
					"outputs": [
						{
							"internalType": "uint256",
							"name": "",
							"type": "uint256"
						}
					],
					"stateMutability": "view",
					"type": "function"
				},
				{
					"inputs": [],
					"name": "deposit",
					"outputs": [],
					"stateMutability": "payable",
					"type": "function"
				},
				{
					"inputs": [],
					"name": "getContractBalance",
					"outputs": [
						{
							"internalType": "uint256",
							"name": "",
							"type": "uint256"
						}
					],
					"stateMutability": "view",
					"type": "function"
				},
				{
					"inputs": [],
					"name": "withdrawAll",
					"outputs": [],
					"stateMutability": "nonpayable",
					"type": "function"
				},
				{
					"inputs": [
						{
							"internalType": "address payable",
							"name": "to",
							"type": "address"
						}
					],
					"name": "withdrawTo",
					"outputs": [],
					"stateMutability": "nonpayable",
					"type": "function"
				}
			],
			"devdoc": {
				"kind": "dev",
				"methods": {},
				"version": 1
			},
			"evm": {
				"assembly": "    /* \"contracts/SmartMoneyProject.sol\":235:1226  contract SmartMoneyProject{... */\n  mstore(0x40, 0x80)\n  callvalue\n  dup1\n  iszero\n  tag_1\n  jumpi\n  0x00\n  dup1\n  revert\ntag_1:\n  pop\n  dataSize(sub_0)\n  dup1\n  dataOffset(sub_0)\n  0x00\n  codecopy\n  0x00\n  return\nstop\n\nsub_0: assembly {\n        /* \"contracts/SmartMoneyProject.sol\":235:1226  contract SmartMoneyProject{... */\n      mstore(0x40, 0x80)\n      jumpi(tag_1, lt(calldatasize, 0x04))\n      shr(0xe0, calldataload(0x00))\n      dup1\n      0x52a90c42\n      eq\n      tag_2\n      jumpi\n      dup1\n      0x6f9fb98a\n      eq\n      tag_3\n      jumpi\n      dup1\n      0x72b0d90c\n      eq\n      tag_4\n      jumpi\n      dup1\n      0x853828b6\n      eq\n      tag_5\n      jumpi\n      dup1\n      0xd0e30db0\n      eq\n      tag_6\n      jumpi\n    tag_1:\n      0x00\n      dup1\n      revert\n        /* \"contracts/SmartMoneyProject.sol\":268:295  uint public balanceReceived */\n    tag_2:\n      callvalue\n      dup1\n      iszero\n      tag_7\n      jumpi\n      0x00\n      dup1\n      revert\n    tag_7:\n      pop\n      tag_8\n      tag_9\n      jump\t// in\n    tag_8:\n      mload(0x40)\n      tag_10\n      swap2\n      swap1\n      tag_11\n      jump\t// in\n    tag_10:\n      mload(0x40)\n      dup1\n      swap2\n      sub\n      swap1\n      return\n        /* \"contracts/SmartMoneyProject.sol\":632:774  function getContractBalance() public view returns(uint) {   // Contract balance getter function.... */\n    tag_3:\n      callvalue\n      dup1\n      iszero\n      tag_12\n      jumpi\n      0x00\n      dup1\n      revert\n    tag_12:\n      pop\n      tag_13\n      tag_14\n      jump\t// in\n    tag_13:\n      mload(0x40)\n      tag_15\n      swap2\n      swap1\n      tag_11\n      jump\t// in\n    tag_15:\n      mload(0x40)\n      dup1\n      swap2\n      sub\n      swap1\n      return\n        /* \"contracts/SmartMoneyProject.sol\":1124:1223  function withdrawTo(address payable to) public {... */\n    tag_4:\n      callvalue\n      dup1\n      iszero\n      tag_16\n      jumpi\n      0x00\n      dup1\n      revert\n    tag_16:\n      pop\n      tag_17\n      0x04\n      dup1\n      calldatasize\n      sub\n      dup2\n      add\n      swap1\n      tag_18\n      swap2\n      swap1\n      tag_19\n      jump\t// in\n    tag_18:\n      tag_20\n      jump\t// in\n    tag_17:\n      stop\n        /* \"contracts/SmartMoneyProject.sol\":782:1116  function withdrawAll() public {                             // Transfer all the balance in this SM to the message ender.... */\n    tag_5:\n      callvalue\n      dup1\n      iszero\n      tag_21\n      jumpi\n      0x00\n      dup1\n      revert\n    tag_21:\n      pop\n      tag_22\n      tag_23\n      jump\t// in\n    tag_22:\n      stop\n        /* \"contracts/SmartMoneyProject.sol\":304:538  function deposit() public payable {                         // Deposits the money into the smart contract.... */\n    tag_6:\n      tag_24\n      tag_25\n      jump\t// in\n    tag_24:\n      stop\n        /* \"contracts/SmartMoneyProject.sol\":268:295  uint public balanceReceived */\n    tag_9:\n      sload(0x00)\n      dup2\n      jump\t// out\n        /* \"contracts/SmartMoneyProject.sol\":632:774  function getContractBalance() public view returns(uint) {   // Contract balance getter function.... */\n    tag_14:\n        /* \"contracts/SmartMoneyProject.sol\":682:686  uint */\n      0x00\n        /* \"contracts/SmartMoneyProject.sol\":745:766  address(this).balance */\n      selfbalance\n        /* \"contracts/SmartMoneyProject.sol\":738:766  return address(this).balance */\n      swap1\n      pop\n        /* \"contracts/SmartMoneyProject.sol\":632:774  function getContractBalance() public view returns(uint) {   // Contract balance getter function.... */\n      swap1\n      jump\t// out\n        /* \"contracts/SmartMoneyProject.sol\":1124:1223  function withdrawTo(address payable to) public {... */\n    tag_20:\n        /* \"contracts/SmartMoneyProject.sol\":1182:1184  to */\n      dup1\n        /* \"contracts/SmartMoneyProject.sol\":1182:1193  to.transfer */\n      0xffffffffffffffffffffffffffffffffffffffff\n      and\n        /* \"contracts/SmartMoneyProject.sol\":1182:1215  to.transfer(getContractBalance()) */\n      0x08fc\n        /* \"contracts/SmartMoneyProject.sol\":1194:1214  getContractBalance() */\n      tag_28\n        /* \"contracts/SmartMoneyProject.sol\":1194:1212  getContractBalance */\n      tag_14\n        /* \"contracts/SmartMoneyProject.sol\":1194:1214  getContractBalance() */\n      jump\t// in\n    tag_28:\n        /* \"contracts/SmartMoneyProject.sol\":1182:1215  to.transfer(getContractBalance()) */\n      swap1\n      dup2\n      iszero\n      mul\n      swap1\n      mload(0x40)\n      0x00\n      mload(0x40)\n      dup1\n      dup4\n      sub\n      dup2\n      dup6\n      dup9\n      dup9\n      call\n      swap4\n      pop\n      pop\n      pop\n      pop\n      iszero\n      dup1\n      iszero\n      tag_30\n      jumpi\n      returndatasize\n      0x00\n      dup1\n      returndatacopy\n      revert(0x00, returndatasize)\n    tag_30:\n      pop\n        /* \"contracts/SmartMoneyProject.sol\":1124:1223  function withdrawTo(address payable to) public {... */\n      pop\n      jump\t// out\n        /* \"contracts/SmartMoneyProject.sol\":782:1116  function withdrawAll() public {                             // Transfer all the balance in this SM to the message ender.... */\n    tag_23:\n        /* \"contracts/SmartMoneyProject.sol\":1066:1076  msg.sender */\n      caller\n        /* \"contracts/SmartMoneyProject.sol\":1058:1086  payable(msg.sender).transfer */\n      0xffffffffffffffffffffffffffffffffffffffff\n      and\n        /* \"contracts/SmartMoneyProject.sol\":1058:1108  payable(msg.sender).transfer(getContractBalance()) */\n      0x08fc\n        /* \"contracts/SmartMoneyProject.sol\":1087:1107  getContractBalance() */\n      tag_32\n        /* \"contracts/SmartMoneyProject.sol\":1087:1105  getContractBalance */\n      tag_14\n        /* \"contracts/SmartMoneyProject.sol\":1087:1107  getContractBalance() */\n      jump\t// in\n    tag_32:\n        /* \"contracts/SmartMoneyProject.sol\":1058:1108  payable(msg.sender).transfer(getContractBalance()) */\n      swap1\n      dup2\n      iszero\n      mul\n      swap1\n      mload(0x40)\n      0x00\n      mload(0x40)\n      dup1\n      dup4\n      sub\n      dup2\n      dup6\n      dup9\n      dup9\n      call\n      swap4\n      pop\n      pop\n      pop\n      pop\n      iszero\n      dup1\n      iszero\n      tag_34\n      jumpi\n      returndatasize\n      0x00\n      dup1\n      returndatacopy\n      revert(0x00, returndatasize)\n    tag_34:\n      pop\n        /* \"contracts/SmartMoneyProject.sol\":782:1116  function withdrawAll() public {                             // Transfer all the balance in this SM to the message ender.... */\n      jump\t// out\n        /* \"contracts/SmartMoneyProject.sol\":304:538  function deposit() public payable {                         // Deposits the money into the smart contract.... */\n    tag_25:\n        /* \"contracts/SmartMoneyProject.sol\":439:448  msg.value */\n      callvalue\n        /* \"contracts/SmartMoneyProject.sol\":420:435  balanceReceived */\n      0x00\n      dup1\n        /* \"contracts/SmartMoneyProject.sol\":420:448  balanceReceived += msg.value */\n      dup3\n      dup3\n      sload\n      tag_36\n      swap2\n      swap1\n      tag_37\n      jump\t// in\n    tag_36:\n      swap3\n      pop\n      pop\n      dup2\n      swap1\n      sstore\n      pop\n        /* \"contracts/SmartMoneyProject.sol\":304:538  function deposit() public payable {                         // Deposits the money into the smart contract.... */\n      jump\t// out\n        /* \"#utility.yul\":7:84   */\n    tag_38:\n        /* \"#utility.yul\":44:51   */\n      0x00\n        /* \"#utility.yul\":73:78   */\n      dup2\n        /* \"#utility.yul\":62:78   */\n      swap1\n      pop\n        /* \"#utility.yul\":7:84   */\n      swap2\n      swap1\n      pop\n      jump\t// out\n        /* \"#utility.yul\":90:208   */\n    tag_39:\n        /* \"#utility.yul\":177:201   */\n      tag_51\n        /* \"#utility.yul\":195:200   */\n      dup2\n        /* \"#utility.yul\":177:201   */\n      tag_38\n      jump\t// in\n    tag_51:\n        /* \"#utility.yul\":172:175   */\n      dup3\n        /* \"#utility.yul\":165:202   */\n      mstore\n        /* \"#utility.yul\":90:208   */\n      pop\n      pop\n      jump\t// out\n        /* \"#utility.yul\":214:436   */\n    tag_11:\n        /* \"#utility.yul\":307:311   */\n      0x00\n        /* \"#utility.yul\":345:347   */\n      0x20\n        /* \"#utility.yul\":334:343   */\n      dup3\n        /* \"#utility.yul\":330:348   */\n      add\n        /* \"#utility.yul\":322:348   */\n      swap1\n      pop\n        /* \"#utility.yul\":358:429   */\n      tag_53\n        /* \"#utility.yul\":426:427   */\n      0x00\n        /* \"#utility.yul\":415:424   */\n      dup4\n        /* \"#utility.yul\":411:428   */\n      add\n        /* \"#utility.yul\":402:408   */\n      dup5\n        /* \"#utility.yul\":358:429   */\n      tag_39\n      jump\t// in\n    tag_53:\n        /* \"#utility.yul\":214:436   */\n      swap3\n      swap2\n      pop\n      pop\n      jump\t// out\n        /* \"#utility.yul\":523:640   */\n    tag_41:\n        /* \"#utility.yul\":632:633   */\n      0x00\n        /* \"#utility.yul\":629:630   */\n      dup1\n        /* \"#utility.yul\":622:634   */\n      revert\n        /* \"#utility.yul\":769:895   */\n    tag_43:\n        /* \"#utility.yul\":806:813   */\n      0x00\n        /* \"#utility.yul\":846:888   */\n      0xffffffffffffffffffffffffffffffffffffffff\n        /* \"#utility.yul\":839:844   */\n      dup3\n        /* \"#utility.yul\":835:889   */\n      and\n        /* \"#utility.yul\":824:889   */\n      swap1\n      pop\n        /* \"#utility.yul\":769:895   */\n      swap2\n      swap1\n      pop\n      jump\t// out\n        /* \"#utility.yul\":901:1005   */\n    tag_44:\n        /* \"#utility.yul\":946:953   */\n      0x00\n        /* \"#utility.yul\":975:999   */\n      tag_59\n        /* \"#utility.yul\":993:998   */\n      dup3\n        /* \"#utility.yul\":975:999   */\n      tag_43\n      jump\t// in\n    tag_59:\n        /* \"#utility.yul\":964:999   */\n      swap1\n      pop\n        /* \"#utility.yul\":901:1005   */\n      swap2\n      swap1\n      pop\n      jump\t// out\n        /* \"#utility.yul\":1011:1149   */\n    tag_45:\n        /* \"#utility.yul\":1092:1124   */\n      tag_61\n        /* \"#utility.yul\":1118:1123   */\n      dup2\n        /* \"#utility.yul\":1092:1124   */\n      tag_44\n      jump\t// in\n    tag_61:\n        /* \"#utility.yul\":1085:1090   */\n      dup2\n        /* \"#utility.yul\":1082:1125   */\n      eq\n        /* \"#utility.yul\":1072:1143   */\n      tag_62\n      jumpi\n        /* \"#utility.yul\":1139:1140   */\n      0x00\n        /* \"#utility.yul\":1136:1137   */\n      dup1\n        /* \"#utility.yul\":1129:1141   */\n      revert\n        /* \"#utility.yul\":1072:1143   */\n    tag_62:\n        /* \"#utility.yul\":1011:1149   */\n      pop\n      jump\t// out\n        /* \"#utility.yul\":1155:1310   */\n    tag_46:\n        /* \"#utility.yul\":1209:1214   */\n      0x00\n        /* \"#utility.yul\":1247:1253   */\n      dup2\n        /* \"#utility.yul\":1234:1254   */\n      calldataload\n        /* \"#utility.yul\":1225:1254   */\n      swap1\n      pop\n        /* \"#utility.yul\":1263:1304   */\n      tag_64\n        /* \"#utility.yul\":1298:1303   */\n      dup2\n        /* \"#utility.yul\":1263:1304   */\n      tag_45\n      jump\t// in\n    tag_64:\n        /* \"#utility.yul\":1155:1310   */\n      swap3\n      swap2\n      pop\n      pop\n      jump\t// out\n        /* \"#utility.yul\":1316:1661   */\n    tag_19:\n        /* \"#utility.yul\":1383:1389   */\n      0x00\n        /* \"#utility.yul\":1432:1434   */\n      0x20\n        /* \"#utility.yul\":1420:1429   */\n      dup3\n        /* \"#utility.yul\":1411:1418   */\n      dup5\n        /* \"#utility.yul\":1407:1430   */\n      sub\n        /* \"#utility.yul\":1403:1435   */\n      slt\n        /* \"#utility.yul\":1400:1519   */\n      iszero\n      tag_66\n      jumpi\n        /* \"#utility.yul\":1438:1517   */\n      tag_67\n      tag_41\n      jump\t// in\n    tag_67:\n        /* \"#utility.yul\":1400:1519   */\n    tag_66:\n        /* \"#utility.yul\":1558:1559   */\n      0x00\n        /* \"#utility.yul\":1583:1644   */\n      tag_68\n        /* \"#utility.yul\":1636:1643   */\n      dup5\n        /* \"#utility.yul\":1627:1633   */\n      dup3\n        /* \"#utility.yul\":1616:1625   */\n      dup6\n        /* \"#utility.yul\":1612:1634   */\n      add\n        /* \"#utility.yul\":1583:1644   */\n      tag_46\n      jump\t// in\n    tag_68:\n        /* \"#utility.yul\":1573:1644   */\n      swap2\n      pop\n        /* \"#utility.yul\":1529:1654   */\n      pop\n        /* \"#utility.yul\":1316:1661   */\n      swap3\n      swap2\n      pop\n      pop\n      jump\t// out\n        /* \"#utility.yul\":1667:1847   */\n    tag_47:\n        /* \"#utility.yul\":1715:1792   */\n      0x4e487b7100000000000000000000000000000000000000000000000000000000\n        /* \"#utility.yul\":1712:1713   */\n      0x00\n        /* \"#utility.yul\":1705:1793   */\n      mstore\n        /* \"#utility.yul\":1812:1816   */\n      0x11\n        /* \"#utility.yul\":1809:1810   */\n      0x04\n        /* \"#utility.yul\":1802:1817   */\n      mstore\n        /* \"#utility.yul\":1836:1840   */\n      0x24\n        /* \"#utility.yul\":1833:1834   */\n      0x00\n        /* \"#utility.yul\":1826:1841   */\n      revert\n        /* \"#utility.yul\":1853:2158   */\n    tag_37:\n        /* \"#utility.yul\":1893:1896   */\n      0x00\n        /* \"#utility.yul\":1912:1932   */\n      tag_71\n        /* \"#utility.yul\":1930:1931   */\n      dup3\n        /* \"#utility.yul\":1912:1932   */\n      tag_38\n      jump\t// in\n    tag_71:\n        /* \"#utility.yul\":1907:1932   */\n      swap2\n      pop\n        /* \"#utility.yul\":1946:1966   */\n      tag_72\n        /* \"#utility.yul\":1964:1965   */\n      dup4\n        /* \"#utility.yul\":1946:1966   */\n      tag_38\n      jump\t// in\n    tag_72:\n        /* \"#utility.yul\":1941:1966   */\n      swap3\n      pop\n        /* \"#utility.yul\":2100:2101   */\n      dup3\n        /* \"#utility.yul\":2032:2098   */\n      0xffffffffffffffffffffffffffffffffffffffffffffffffffffffffffffffff\n        /* \"#utility.yul\":2028:2102   */\n      sub\n        /* \"#utility.yul\":2025:2026   */\n      dup3\n        /* \"#utility.yul\":2022:2103   */\n      gt\n        /* \"#utility.yul\":2019:2126   */\n      iszero\n      tag_73\n      jumpi\n        /* \"#utility.yul\":2106:2124   */\n      tag_74\n      tag_47\n      jump\t// in\n    tag_74:\n        /* \"#utility.yul\":2019:2126   */\n    tag_73:\n        /* \"#utility.yul\":2150:2151   */\n      dup3\n        /* \"#utility.yul\":2147:2148   */\n      dup3\n        /* \"#utility.yul\":2143:2152   */\n      add\n        /* \"#utility.yul\":2136:2152   */\n      swap1\n      pop\n        /* \"#utility.yul\":1853:2158   */\n      swap3\n      swap2\n      pop\n      pop\n      jump\t// out\n\n    auxdata: 0xa264697066735822122044bbcbbaccb36daa52860122d6744671afe411f1ac544630dec936a891c3950e64736f6c634300080f0033\n}\n",
				"bytecode": {
					"linkReferences": {},
					"object": "608060405234801561001057600080fd5b50610337806100206000396000f3fe60806040526004361061004a5760003560e01c806352a90c421461004f5780636f9fb98a1461007a57806372b0d90c146100a5578063853828b6146100ce578063d0e30db0146100e5575b600080fd5b34801561005b57600080fd5b506100646100ef565b60405161007191906101d1565b60405180910390f35b34801561008657600080fd5b5061008f6100f5565b60405161009c91906101d1565b60405180910390f35b3480156100b157600080fd5b506100cc60048036038101906100c7919061024f565b6100fd565b005b3480156100da57600080fd5b506100e361014e565b005b6100ed61019e565b005b60005481565b600047905090565b8073ffffffffffffffffffffffffffffffffffffffff166108fc61011f6100f5565b9081150290604051600060405180830381858888f1935050505015801561014a573d6000803e3d6000fd5b5050565b3373ffffffffffffffffffffffffffffffffffffffff166108fc6101706100f5565b9081150290604051600060405180830381858888f1935050505015801561019b573d6000803e3d6000fd5b50565b346000808282546101af91906102ab565b92505081905550565b6000819050919050565b6101cb816101b8565b82525050565b60006020820190506101e660008301846101c2565b92915050565b600080fd5b600073ffffffffffffffffffffffffffffffffffffffff82169050919050565b600061021c826101f1565b9050919050565b61022c81610211565b811461023757600080fd5b50565b60008135905061024981610223565b92915050565b600060208284031215610265576102646101ec565b5b60006102738482850161023a565b91505092915050565b7f4e487b7100000000000000000000000000000000000000000000000000000000600052601160045260246000fd5b60006102b6826101b8565b91506102c1836101b8565b9250827fffffffffffffffffffffffffffffffffffffffffffffffffffffffffffffffff038211156102f6576102f561027c565b5b82820190509291505056fea264697066735822122044bbcbbaccb36daa52860122d6744671afe411f1ac544630dec936a891c3950e64736f6c634300080f0033",
					"opcodes": "PUSH1 0x80 PUSH1 0x40 MSTORE CALLVALUE DUP1 ISZERO PUSH2 0x10 JUMPI PUSH1 0x0 DUP1 REVERT JUMPDEST POP PUSH2 0x337 DUP1 PUSH2 0x20 PUSH1 0x0 CODECOPY PUSH1 0x0 RETURN INVALID PUSH1 0x80 PUSH1 0x40 MSTORE PUSH1 0x4 CALLDATASIZE LT PUSH2 0x4A JUMPI PUSH1 0x0 CALLDATALOAD PUSH1 0xE0 SHR DUP1 PUSH4 0x52A90C42 EQ PUSH2 0x4F JUMPI DUP1 PUSH4 0x6F9FB98A EQ PUSH2 0x7A JUMPI DUP1 PUSH4 0x72B0D90C EQ PUSH2 0xA5 JUMPI DUP1 PUSH4 0x853828B6 EQ PUSH2 0xCE JUMPI DUP1 PUSH4 0xD0E30DB0 EQ PUSH2 0xE5 JUMPI JUMPDEST PUSH1 0x0 DUP1 REVERT JUMPDEST CALLVALUE DUP1 ISZERO PUSH2 0x5B JUMPI PUSH1 0x0 DUP1 REVERT JUMPDEST POP PUSH2 0x64 PUSH2 0xEF JUMP JUMPDEST PUSH1 0x40 MLOAD PUSH2 0x71 SWAP2 SWAP1 PUSH2 0x1D1 JUMP JUMPDEST PUSH1 0x40 MLOAD DUP1 SWAP2 SUB SWAP1 RETURN JUMPDEST CALLVALUE DUP1 ISZERO PUSH2 0x86 JUMPI PUSH1 0x0 DUP1 REVERT JUMPDEST POP PUSH2 0x8F PUSH2 0xF5 JUMP JUMPDEST PUSH1 0x40 MLOAD PUSH2 0x9C SWAP2 SWAP1 PUSH2 0x1D1 JUMP JUMPDEST PUSH1 0x40 MLOAD DUP1 SWAP2 SUB SWAP1 RETURN JUMPDEST CALLVALUE DUP1 ISZERO PUSH2 0xB1 JUMPI PUSH1 0x0 DUP1 REVERT JUMPDEST POP PUSH2 0xCC PUSH1 0x4 DUP1 CALLDATASIZE SUB DUP2 ADD SWAP1 PUSH2 0xC7 SWAP2 SWAP1 PUSH2 0x24F JUMP JUMPDEST PUSH2 0xFD JUMP JUMPDEST STOP JUMPDEST CALLVALUE DUP1 ISZERO PUSH2 0xDA JUMPI PUSH1 0x0 DUP1 REVERT JUMPDEST POP PUSH2 0xE3 PUSH2 0x14E JUMP JUMPDEST STOP JUMPDEST PUSH2 0xED PUSH2 0x19E JUMP JUMPDEST STOP JUMPDEST PUSH1 0x0 SLOAD DUP2 JUMP JUMPDEST PUSH1 0x0 SELFBALANCE SWAP1 POP SWAP1 JUMP JUMPDEST DUP1 PUSH20 0xFFFFFFFFFFFFFFFFFFFFFFFFFFFFFFFFFFFFFFFF AND PUSH2 0x8FC PUSH2 0x11F PUSH2 0xF5 JUMP JUMPDEST SWAP1 DUP2 ISZERO MUL SWAP1 PUSH1 0x40 MLOAD PUSH1 0x0 PUSH1 0x40 MLOAD DUP1 DUP4 SUB DUP2 DUP6 DUP9 DUP9 CALL SWAP4 POP POP POP POP ISZERO DUP1 ISZERO PUSH2 0x14A JUMPI RETURNDATASIZE PUSH1 0x0 DUP1 RETURNDATACOPY RETURNDATASIZE PUSH1 0x0 REVERT JUMPDEST POP POP JUMP JUMPDEST CALLER PUSH20 0xFFFFFFFFFFFFFFFFFFFFFFFFFFFFFFFFFFFFFFFF AND PUSH2 0x8FC PUSH2 0x170 PUSH2 0xF5 JUMP JUMPDEST SWAP1 DUP2 ISZERO MUL SWAP1 PUSH1 0x40 MLOAD PUSH1 0x0 PUSH1 0x40 MLOAD DUP1 DUP4 SUB DUP2 DUP6 DUP9 DUP9 CALL SWAP4 POP POP POP POP ISZERO DUP1 ISZERO PUSH2 0x19B JUMPI RETURNDATASIZE PUSH1 0x0 DUP1 RETURNDATACOPY RETURNDATASIZE PUSH1 0x0 REVERT JUMPDEST POP JUMP JUMPDEST CALLVALUE PUSH1 0x0 DUP1 DUP3 DUP3 SLOAD PUSH2 0x1AF SWAP2 SWAP1 PUSH2 0x2AB JUMP JUMPDEST SWAP3 POP POP DUP2 SWAP1 SSTORE POP JUMP JUMPDEST PUSH1 0x0 DUP2 SWAP1 POP SWAP2 SWAP1 POP JUMP JUMPDEST PUSH2 0x1CB DUP2 PUSH2 0x1B8 JUMP JUMPDEST DUP3 MSTORE POP POP JUMP JUMPDEST PUSH1 0x0 PUSH1 0x20 DUP3 ADD SWAP1 POP PUSH2 0x1E6 PUSH1 0x0 DUP4 ADD DUP5 PUSH2 0x1C2 JUMP JUMPDEST SWAP3 SWAP2 POP POP JUMP JUMPDEST PUSH1 0x0 DUP1 REVERT JUMPDEST PUSH1 0x0 PUSH20 0xFFFFFFFFFFFFFFFFFFFFFFFFFFFFFFFFFFFFFFFF DUP3 AND SWAP1 POP SWAP2 SWAP1 POP JUMP JUMPDEST PUSH1 0x0 PUSH2 0x21C DUP3 PUSH2 0x1F1 JUMP JUMPDEST SWAP1 POP SWAP2 SWAP1 POP JUMP JUMPDEST PUSH2 0x22C DUP2 PUSH2 0x211 JUMP JUMPDEST DUP2 EQ PUSH2 0x237 JUMPI PUSH1 0x0 DUP1 REVERT JUMPDEST POP JUMP JUMPDEST PUSH1 0x0 DUP2 CALLDATALOAD SWAP1 POP PUSH2 0x249 DUP2 PUSH2 0x223 JUMP JUMPDEST SWAP3 SWAP2 POP POP JUMP JUMPDEST PUSH1 0x0 PUSH1 0x20 DUP3 DUP5 SUB SLT ISZERO PUSH2 0x265 JUMPI PUSH2 0x264 PUSH2 0x1EC JUMP JUMPDEST JUMPDEST PUSH1 0x0 PUSH2 0x273 DUP5 DUP3 DUP6 ADD PUSH2 0x23A JUMP JUMPDEST SWAP2 POP POP SWAP3 SWAP2 POP POP JUMP JUMPDEST PUSH32 0x4E487B7100000000000000000000000000000000000000000000000000000000 PUSH1 0x0 MSTORE PUSH1 0x11 PUSH1 0x4 MSTORE PUSH1 0x24 PUSH1 0x0 REVERT JUMPDEST PUSH1 0x0 PUSH2 0x2B6 DUP3 PUSH2 0x1B8 JUMP JUMPDEST SWAP2 POP PUSH2 0x2C1 DUP4 PUSH2 0x1B8 JUMP JUMPDEST SWAP3 POP DUP3 PUSH32 0xFFFFFFFFFFFFFFFFFFFFFFFFFFFFFFFFFFFFFFFFFFFFFFFFFFFFFFFFFFFFFFFF SUB DUP3 GT ISZERO PUSH2 0x2F6 JUMPI PUSH2 0x2F5 PUSH2 0x27C JUMP JUMPDEST JUMPDEST DUP3 DUP3 ADD SWAP1 POP SWAP3 SWAP2 POP POP JUMP INVALID LOG2 PUSH5 0x6970667358 0x22 SLT KECCAK256 DIFFICULTY 0xBB 0xCB 0xBA 0xCC 0xB3 PUSH14 0xAA52860122D6744671AFE411F1AC SLOAD CHAINID ADDRESS 0xDE 0xC9 CALLDATASIZE 0xA8 SWAP2 0xC3 SWAP6 0xE PUSH5 0x736F6C6343 STOP ADDMOD 0xF STOP CALLER "
				},
				"gasEstimates": {
					"creation": {
						"codeDepositCost": "164600",
						"executionCost": "208",
						"totalCost": "164808"
					},
					"external": {
						"balanceReceived()": "2407",
						"deposit()": "infinite",
						"getContractBalance()": "339",
						"withdrawAll()": "infinite",
						"withdrawTo(address)": "infinite"
					}
				},
				"methodIdentifiers": {
					"balanceReceived()": "52a90c42",
					"deposit()": "d0e30db0",
					"getContractBalance()": "6f9fb98a",
					"withdrawAll()": "853828b6",
					"withdrawTo(address)": "72b0d90c"
				}
			},
			"storageLayout": {
				"storage": [
					{
						"astId": 3,
						"contract": "contracts/SmartMoneyProject.sol:SmartMoneyProject",
						"label": "balanceReceived",
						"offset": 0,
						"slot": "0",
						"type": "t_uint256"
					}
				],
				"types": {
					"t_uint256": {
						"encoding": "inplace",
						"label": "uint256",
						"numberOfBytes": "32"
					}
				}
			},
			"userdoc": {
				"kind": "user",
				"methods": {},
				"version": 1
			}
		}
	}
}