{
	"contracts/SampleDeployemnt.sol": {
		"SampleDeployement": {
			"abi": [
				{
					"inputs": [],
					"name": "myString",
					"outputs": [
						{
							"internalType": "string",
							"name": "",
							"type": "string"
						}
					],
					"stateMutability": "view",
					"type": "function"
				},
				{
					"inputs": [
						{
							"internalType": "string",
							"name": "_myString",
							"type": "string"
						}
					],
					"name": "upadteString",
					"outputs": [],
					"stateMutability": "nonpayable",
					"type": "function"
				}
			],
			"devdoc": {
				"kind": "dev",
				"methods": {},
				"version": 1
			},
			"evm": {
				"assembly": "    /* \"contracts/SampleDeployemnt.sol\":130:290  contract SampleDeployement{... */\n  mstore(0x40, 0x80)\n  callvalue\n  dup1\n  iszero\n  tag_1\n  jumpi\n  0x00\n  dup1\n  revert\ntag_1:\n  pop\n  dataSize(sub_0)\n  dup1\n  dataOffset(sub_0)\n  0x00\n  codecopy\n  0x00\n  return\nstop\n\nsub_0: assembly {\n        /* \"contracts/SampleDeployemnt.sol\":130:290  contract SampleDeployement{... */\n      mstore(0x40, 0x80)\n      callvalue\n      dup1\n      iszero\n      tag_1\n      jumpi\n      0x00\n      dup1\n      revert\n    tag_1:\n      pop\n      jumpi(tag_2, lt(calldatasize, 0x04))\n      shr(0xe0, calldataload(0x00))\n      dup1\n      0x492bfa18\n      eq\n      tag_3\n      jumpi\n      dup1\n      0xeb4350b6\n      eq\n      tag_4\n      jumpi\n    tag_2:\n      0x00\n      dup1\n      revert\n        /* \"contracts/SampleDeployemnt.sol\":163:185  string public myString */\n    tag_3:\n      tag_5\n      tag_6\n      jump\t// in\n    tag_5:\n      mload(0x40)\n      tag_7\n      swap2\n      swap1\n      tag_8\n      jump\t// in\n    tag_7:\n      mload(0x40)\n      dup1\n      swap2\n      sub\n      swap1\n      return\n        /* \"contracts/SampleDeployemnt.sol\":194:287  function upadteString (string memory _myString) public{... */\n    tag_4:\n      tag_9\n      0x04\n      dup1\n      calldatasize\n      sub\n      dup2\n      add\n      swap1\n      tag_10\n      swap2\n      swap1\n      tag_11\n      jump\t// in\n    tag_10:\n      tag_12\n      jump\t// in\n    tag_9:\n      stop\n        /* \"contracts/SampleDeployemnt.sol\":163:185  string public myString */\n    tag_6:\n      0x00\n      dup1\n      sload\n      tag_13\n      swap1\n      tag_14\n      jump\t// in\n    tag_13:\n      dup1\n      0x1f\n      add\n      0x20\n      dup1\n      swap2\n      div\n      mul\n      0x20\n      add\n      mload(0x40)\n      swap1\n      dup2\n      add\n      0x40\n      mstore\n      dup1\n      swap3\n      swap2\n      swap1\n      dup2\n      dup2\n      mstore\n      0x20\n      add\n      dup3\n      dup1\n      sload\n      tag_15\n      swap1\n      tag_14\n      jump\t// in\n    tag_15:\n      dup1\n      iszero\n      tag_16\n      jumpi\n      dup1\n      0x1f\n      lt\n      tag_17\n      jumpi\n      0x0100\n      dup1\n      dup4\n      sload\n      div\n      mul\n      dup4\n      mstore\n      swap2\n      0x20\n      add\n      swap2\n      jump(tag_16)\n    tag_17:\n      dup3\n      add\n      swap2\n      swap1\n      0x00\n      mstore\n      keccak256(0x00, 0x20)\n      swap1\n    tag_18:\n      dup2\n      sload\n      dup2\n      mstore\n      swap1\n      0x01\n      add\n      swap1\n      0x20\n      add\n      dup1\n      dup4\n      gt\n      tag_18\n      jumpi\n      dup3\n      swap1\n      sub\n      0x1f\n      and\n      dup3\n      add\n      swap2\n    tag_16:\n      pop\n      pop\n      pop\n      pop\n      pop\n      dup2\n      jump\t// out\n        /* \"contracts/SampleDeployemnt.sol\":194:287  function upadteString (string memory _myString) public{... */\n    tag_12:\n        /* \"contracts/SampleDeployemnt.sol\":270:279  _myString */\n      dup1\n        /* \"contracts/SampleDeployemnt.sol\":259:267  myString */\n      0x00\n        /* \"contracts/SampleDeployemnt.sol\":259:279  myString = _myString */\n      swap1\n      dup2\n      tag_20\n      swap2\n      swap1\n      tag_21\n      jump\t// in\n    tag_20:\n      pop\n        /* \"contracts/SampleDeployemnt.sol\":194:287  function upadteString (string memory _myString) public{... */\n      pop\n      jump\t// out\n        /* \"#utility.yul\":7:106   */\n    tag_22:\n        /* \"#utility.yul\":59:65   */\n      0x00\n        /* \"#utility.yul\":93:98   */\n      dup2\n        /* \"#utility.yul\":87:99   */\n      mload\n        /* \"#utility.yul\":77:99   */\n      swap1\n      pop\n        /* \"#utility.yul\":7:106   */\n      swap2\n      swap1\n      pop\n      jump\t// out\n        /* \"#utility.yul\":112:281   */\n    tag_23:\n        /* \"#utility.yul\":196:207   */\n      0x00\n        /* \"#utility.yul\":230:236   */\n      dup3\n        /* \"#utility.yul\":225:228   */\n      dup3\n        /* \"#utility.yul\":218:237   */\n      mstore\n        /* \"#utility.yul\":270:274   */\n      0x20\n        /* \"#utility.yul\":265:268   */\n      dup3\n        /* \"#utility.yul\":261:275   */\n      add\n        /* \"#utility.yul\":246:275   */\n      swap1\n      pop\n        /* \"#utility.yul\":112:281   */\n      swap3\n      swap2\n      pop\n      pop\n      jump\t// out\n        /* \"#utility.yul\":287:594   */\n    tag_24:\n        /* \"#utility.yul\":355:356   */\n      0x00\n        /* \"#utility.yul\":365:478   */\n    tag_60:\n        /* \"#utility.yul\":379:385   */\n      dup4\n        /* \"#utility.yul\":376:377   */\n      dup2\n        /* \"#utility.yul\":373:386   */\n      lt\n        /* \"#utility.yul\":365:478   */\n      iszero\n      tag_62\n      jumpi\n        /* \"#utility.yul\":464:465   */\n      dup1\n        /* \"#utility.yul\":459:462   */\n      dup3\n        /* \"#utility.yul\":455:466   */\n      add\n        /* \"#utility.yul\":449:467   */\n      mload\n        /* \"#utility.yul\":445:446   */\n      dup2\n        /* \"#utility.yul\":440:443   */\n      dup5\n        /* \"#utility.yul\":436:447   */\n      add\n        /* \"#utility.yul\":429:468   */\n      mstore\n        /* \"#utility.yul\":401:403   */\n      0x20\n        /* \"#utility.yul\":398:399   */\n      dup2\n        /* \"#utility.yul\":394:404   */\n      add\n        /* \"#utility.yul\":389:404   */\n      swap1\n      pop\n        /* \"#utility.yul\":365:478   */\n      jump(tag_60)\n    tag_62:\n        /* \"#utility.yul\":496:502   */\n      dup4\n        /* \"#utility.yul\":493:494   */\n      dup2\n        /* \"#utility.yul\":490:503   */\n      gt\n        /* \"#utility.yul\":487:588   */\n      iszero\n      tag_63\n      jumpi\n        /* \"#utility.yul\":576:577   */\n      0x00\n        /* \"#utility.yul\":567:573   */\n      dup5\n        /* \"#utility.yul\":562:565   */\n      dup5\n        /* \"#utility.yul\":558:574   */\n      add\n        /* \"#utility.yul\":551:578   */\n      mstore\n        /* \"#utility.yul\":487:588   */\n    tag_63:\n        /* \"#utility.yul\":336:594   */\n      pop\n        /* \"#utility.yul\":287:594   */\n      pop\n      pop\n      pop\n      jump\t// out\n        /* \"#utility.yul\":600:702   */\n    tag_25:\n        /* \"#utility.yul\":641:647   */\n      0x00\n        /* \"#utility.yul\":692:694   */\n      0x1f\n        /* \"#utility.yul\":688:695   */\n      not\n        /* \"#utility.yul\":683:685   */\n      0x1f\n        /* \"#utility.yul\":676:681   */\n      dup4\n        /* \"#utility.yul\":672:686   */\n      add\n        /* \"#utility.yul\":668:696   */\n      and\n        /* \"#utility.yul\":658:696   */\n      swap1\n      pop\n        /* \"#utility.yul\":600:702   */\n      swap2\n      swap1\n      pop\n      jump\t// out\n        /* \"#utility.yul\":708:1072   */\n    tag_26:\n        /* \"#utility.yul\":796:799   */\n      0x00\n        /* \"#utility.yul\":824:863   */\n      tag_66\n        /* \"#utility.yul\":857:862   */\n      dup3\n        /* \"#utility.yul\":824:863   */\n      tag_22\n      jump\t// in\n    tag_66:\n        /* \"#utility.yul\":879:950   */\n      tag_67\n        /* \"#utility.yul\":943:949   */\n      dup2\n        /* \"#utility.yul\":938:941   */\n      dup6\n        /* \"#utility.yul\":879:950   */\n      tag_23\n      jump\t// in\n    tag_67:\n        /* \"#utility.yul\":872:950   */\n      swap4\n      pop\n        /* \"#utility.yul\":959:1011   */\n      tag_68\n        /* \"#utility.yul\":1004:1010   */\n      dup2\n        /* \"#utility.yul\":999:1002   */\n      dup6\n        /* \"#utility.yul\":992:996   */\n      0x20\n        /* \"#utility.yul\":985:990   */\n      dup7\n        /* \"#utility.yul\":981:997   */\n      add\n        /* \"#utility.yul\":959:1011   */\n      tag_24\n      jump\t// in\n    tag_68:\n        /* \"#utility.yul\":1036:1065   */\n      tag_69\n        /* \"#utility.yul\":1058:1064   */\n      dup2\n        /* \"#utility.yul\":1036:1065   */\n      tag_25\n      jump\t// in\n    tag_69:\n        /* \"#utility.yul\":1031:1034   */\n      dup5\n        /* \"#utility.yul\":1027:1066   */\n      add\n        /* \"#utility.yul\":1020:1066   */\n      swap2\n      pop\n        /* \"#utility.yul\":800:1072   */\n      pop\n        /* \"#utility.yul\":708:1072   */\n      swap3\n      swap2\n      pop\n      pop\n      jump\t// out\n        /* \"#utility.yul\":1078:1391   */\n    tag_8:\n        /* \"#utility.yul\":1191:1195   */\n      0x00\n        /* \"#utility.yul\":1229:1231   */\n      0x20\n        /* \"#utility.yul\":1218:1227   */\n      dup3\n        /* \"#utility.yul\":1214:1232   */\n      add\n        /* \"#utility.yul\":1206:1232   */\n      swap1\n      pop\n        /* \"#utility.yul\":1278:1287   */\n      dup2\n        /* \"#utility.yul\":1272:1276   */\n      dup2\n        /* \"#utility.yul\":1268:1288   */\n      sub\n        /* \"#utility.yul\":1264:1265   */\n      0x00\n        /* \"#utility.yul\":1253:1262   */\n      dup4\n        /* \"#utility.yul\":1249:1266   */\n      add\n        /* \"#utility.yul\":1242:1289   */\n      mstore\n        /* \"#utility.yul\":1306:1384   */\n      tag_71\n        /* \"#utility.yul\":1379:1383   */\n      dup2\n        /* \"#utility.yul\":1370:1376   */\n      dup5\n        /* \"#utility.yul\":1306:1384   */\n      tag_26\n      jump\t// in\n    tag_71:\n        /* \"#utility.yul\":1298:1384   */\n      swap1\n      pop\n        /* \"#utility.yul\":1078:1391   */\n      swap3\n      swap2\n      pop\n      pop\n      jump\t// out\n        /* \"#utility.yul\":1397:1472   */\n    tag_27:\n        /* \"#utility.yul\":1430:1436   */\n      0x00\n        /* \"#utility.yul\":1463:1465   */\n      0x40\n        /* \"#utility.yul\":1457:1466   */\n      mload\n        /* \"#utility.yul\":1447:1466   */\n      swap1\n      pop\n        /* \"#utility.yul\":1397:1472   */\n      swap1\n      jump\t// out\n        /* \"#utility.yul\":1478:1595   */\n    tag_28:\n        /* \"#utility.yul\":1587:1588   */\n      0x00\n        /* \"#utility.yul\":1584:1585   */\n      dup1\n        /* \"#utility.yul\":1577:1589   */\n      revert\n        /* \"#utility.yul\":1601:1718   */\n    tag_29:\n        /* \"#utility.yul\":1710:1711   */\n      0x00\n        /* \"#utility.yul\":1707:1708   */\n      dup1\n        /* \"#utility.yul\":1700:1712   */\n      revert\n        /* \"#utility.yul\":1724:1841   */\n    tag_30:\n        /* \"#utility.yul\":1833:1834   */\n      0x00\n        /* \"#utility.yul\":1830:1831   */\n      dup1\n        /* \"#utility.yul\":1823:1835   */\n      revert\n        /* \"#utility.yul\":1847:1964   */\n    tag_31:\n        /* \"#utility.yul\":1956:1957   */\n      0x00\n        /* \"#utility.yul\":1953:1954   */\n      dup1\n        /* \"#utility.yul\":1946:1958   */\n      revert\n        /* \"#utility.yul\":1970:2150   */\n    tag_32:\n        /* \"#utility.yul\":2018:2095   */\n      0x4e487b7100000000000000000000000000000000000000000000000000000000\n        /* \"#utility.yul\":2015:2016   */\n      0x00\n        /* \"#utility.yul\":2008:2096   */\n      mstore\n        /* \"#utility.yul\":2115:2119   */\n      0x41\n        /* \"#utility.yul\":2112:2113   */\n      0x04\n        /* \"#utility.yul\":2105:2120   */\n      mstore\n        /* \"#utility.yul\":2139:2143   */\n      0x24\n        /* \"#utility.yul\":2136:2137   */\n      0x00\n        /* \"#utility.yul\":2129:2144   */\n      revert\n        /* \"#utility.yul\":2156:2437   */\n    tag_33:\n        /* \"#utility.yul\":2239:2266   */\n      tag_79\n        /* \"#utility.yul\":2261:2265   */\n      dup3\n        /* \"#utility.yul\":2239:2266   */\n      tag_25\n      jump\t// in\n    tag_79:\n        /* \"#utility.yul\":2231:2237   */\n      dup2\n        /* \"#utility.yul\":2227:2267   */\n      add\n        /* \"#utility.yul\":2369:2375   */\n      dup2\n        /* \"#utility.yul\":2357:2367   */\n      dup2\n        /* \"#utility.yul\":2354:2376   */\n      lt\n        /* \"#utility.yul\":2333:2351   */\n      0xffffffffffffffff\n        /* \"#utility.yul\":2321:2331   */\n      dup3\n        /* \"#utility.yul\":2318:2352   */\n      gt\n        /* \"#utility.yul\":2315:2377   */\n      or\n        /* \"#utility.yul\":2312:2400   */\n      iszero\n      tag_80\n      jumpi\n        /* \"#utility.yul\":2380:2398   */\n      tag_81\n      tag_32\n      jump\t// in\n    tag_81:\n        /* \"#utility.yul\":2312:2400   */\n    tag_80:\n        /* \"#utility.yul\":2420:2430   */\n      dup1\n        /* \"#utility.yul\":2416:2418   */\n      0x40\n        /* \"#utility.yul\":2409:2431   */\n      mstore\n        /* \"#utility.yul\":2199:2437   */\n      pop\n        /* \"#utility.yul\":2156:2437   */\n      pop\n      pop\n      jump\t// out\n        /* \"#utility.yul\":2443:2572   */\n    tag_34:\n        /* \"#utility.yul\":2477:2483   */\n      0x00\n        /* \"#utility.yul\":2504:2524   */\n      tag_83\n      tag_27\n      jump\t// in\n    tag_83:\n        /* \"#utility.yul\":2494:2524   */\n      swap1\n      pop\n        /* \"#utility.yul\":2533:2566   */\n      tag_84\n        /* \"#utility.yul\":2561:2565   */\n      dup3\n        /* \"#utility.yul\":2553:2559   */\n      dup3\n        /* \"#utility.yul\":2533:2566   */\n      tag_33\n      jump\t// in\n    tag_84:\n        /* \"#utility.yul\":2443:2572   */\n      swap2\n      swap1\n      pop\n      jump\t// out\n        /* \"#utility.yul\":2578:2886   */\n    tag_35:\n        /* \"#utility.yul\":2640:2644   */\n      0x00\n        /* \"#utility.yul\":2730:2748   */\n      0xffffffffffffffff\n        /* \"#utility.yul\":2722:2728   */\n      dup3\n        /* \"#utility.yul\":2719:2749   */\n      gt\n        /* \"#utility.yul\":2716:2772   */\n      iszero\n      tag_86\n      jumpi\n        /* \"#utility.yul\":2752:2770   */\n      tag_87\n      tag_32\n      jump\t// in\n    tag_87:\n        /* \"#utility.yul\":2716:2772   */\n    tag_86:\n        /* \"#utility.yul\":2790:2819   */\n      tag_88\n        /* \"#utility.yul\":2812:2818   */\n      dup3\n        /* \"#utility.yul\":2790:2819   */\n      tag_25\n      jump\t// in\n    tag_88:\n        /* \"#utility.yul\":2782:2819   */\n      swap1\n      pop\n        /* \"#utility.yul\":2874:2878   */\n      0x20\n        /* \"#utility.yul\":2868:2872   */\n      dup2\n        /* \"#utility.yul\":2864:2879   */\n      add\n        /* \"#utility.yul\":2856:2879   */\n      swap1\n      pop\n        /* \"#utility.yul\":2578:2886   */\n      swap2\n      swap1\n      pop\n      jump\t// out\n        /* \"#utility.yul\":2892:3046   */\n    tag_36:\n        /* \"#utility.yul\":2976:2982   */\n      dup3\n        /* \"#utility.yul\":2971:2974   */\n      dup2\n        /* \"#utility.yul\":2966:2969   */\n      dup4\n        /* \"#utility.yul\":2953:2983   */\n      calldatacopy\n        /* \"#utility.yul\":3038:3039   */\n      0x00\n        /* \"#utility.yul\":3029:3035   */\n      dup4\n        /* \"#utility.yul\":3024:3027   */\n      dup4\n        /* \"#utility.yul\":3020:3036   */\n      add\n        /* \"#utility.yul\":3013:3040   */\n      mstore\n        /* \"#utility.yul\":2892:3046   */\n      pop\n      pop\n      pop\n      jump\t// out\n        /* \"#utility.yul\":3052:3464   */\n    tag_37:\n        /* \"#utility.yul\":3130:3135   */\n      0x00\n        /* \"#utility.yul\":3155:3221   */\n      tag_91\n        /* \"#utility.yul\":3171:3220   */\n      tag_92\n        /* \"#utility.yul\":3213:3219   */\n      dup5\n        /* \"#utility.yul\":3171:3220   */\n      tag_35\n      jump\t// in\n    tag_92:\n        /* \"#utility.yul\":3155:3221   */\n      tag_34\n      jump\t// in\n    tag_91:\n        /* \"#utility.yul\":3146:3221   */\n      swap1\n      pop\n        /* \"#utility.yul\":3244:3250   */\n      dup3\n        /* \"#utility.yul\":3237:3242   */\n      dup2\n        /* \"#utility.yul\":3230:3251   */\n      mstore\n        /* \"#utility.yul\":3282:3286   */\n      0x20\n        /* \"#utility.yul\":3275:3280   */\n      dup2\n        /* \"#utility.yul\":3271:3287   */\n      add\n        /* \"#utility.yul\":3320:3323   */\n      dup5\n        /* \"#utility.yul\":3311:3317   */\n      dup5\n        /* \"#utility.yul\":3306:3309   */\n      dup5\n        /* \"#utility.yul\":3302:3318   */\n      add\n        /* \"#utility.yul\":3299:3324   */\n      gt\n        /* \"#utility.yul\":3296:3408   */\n      iszero\n      tag_93\n      jumpi\n        /* \"#utility.yul\":3327:3406   */\n      tag_94\n      tag_31\n      jump\t// in\n    tag_94:\n        /* \"#utility.yul\":3296:3408   */\n    tag_93:\n        /* \"#utility.yul\":3417:3458   */\n      tag_95\n        /* \"#utility.yul\":3451:3457   */\n      dup5\n        /* \"#utility.yul\":3446:3449   */\n      dup3\n        /* \"#utility.yul\":3441:3444   */\n      dup6\n        /* \"#utility.yul\":3417:3458   */\n      tag_36\n      jump\t// in\n    tag_95:\n        /* \"#utility.yul\":3136:3464   */\n      pop\n        /* \"#utility.yul\":3052:3464   */\n      swap4\n      swap3\n      pop\n      pop\n      pop\n      jump\t// out\n        /* \"#utility.yul\":3484:3824   */\n    tag_38:\n        /* \"#utility.yul\":3540:3545   */\n      0x00\n        /* \"#utility.yul\":3589:3592   */\n      dup3\n        /* \"#utility.yul\":3582:3586   */\n      0x1f\n        /* \"#utility.yul\":3574:3580   */\n      dup4\n        /* \"#utility.yul\":3570:3587   */\n      add\n        /* \"#utility.yul\":3566:3593   */\n      slt\n        /* \"#utility.yul\":3556:3678   */\n      tag_97\n      jumpi\n        /* \"#utility.yul\":3597:3676   */\n      tag_98\n      tag_30\n      jump\t// in\n    tag_98:\n        /* \"#utility.yul\":3556:3678   */\n    tag_97:\n        /* \"#utility.yul\":3714:3720   */\n      dup2\n        /* \"#utility.yul\":3701:3721   */\n      calldataload\n        /* \"#utility.yul\":3739:3818   */\n      tag_99\n        /* \"#utility.yul\":3814:3817   */\n      dup5\n        /* \"#utility.yul\":3806:3812   */\n      dup3\n        /* \"#utility.yul\":3799:3803   */\n      0x20\n        /* \"#utility.yul\":3791:3797   */\n      dup7\n        /* \"#utility.yul\":3787:3804   */\n      add\n        /* \"#utility.yul\":3739:3818   */\n      tag_37\n      jump\t// in\n    tag_99:\n        /* \"#utility.yul\":3730:3818   */\n      swap2\n      pop\n        /* \"#utility.yul\":3546:3824   */\n      pop\n        /* \"#utility.yul\":3484:3824   */\n      swap3\n      swap2\n      pop\n      pop\n      jump\t// out\n        /* \"#utility.yul\":3830:4339   */\n    tag_11:\n        /* \"#utility.yul\":3899:3905   */\n      0x00\n        /* \"#utility.yul\":3948:3950   */\n      0x20\n        /* \"#utility.yul\":3936:3945   */\n      dup3\n        /* \"#utility.yul\":3927:3934   */\n      dup5\n        /* \"#utility.yul\":3923:3946   */\n      sub\n        /* \"#utility.yul\":3919:3951   */\n      slt\n        /* \"#utility.yul\":3916:4035   */\n      iszero\n      tag_101\n      jumpi\n        /* \"#utility.yul\":3954:4033   */\n      tag_102\n      tag_28\n      jump\t// in\n    tag_102:\n        /* \"#utility.yul\":3916:4035   */\n    tag_101:\n        /* \"#utility.yul\":4102:4103   */\n      0x00\n        /* \"#utility.yul\":4091:4100   */\n      dup3\n        /* \"#utility.yul\":4087:4104   */\n      add\n        /* \"#utility.yul\":4074:4105   */\n      calldataload\n        /* \"#utility.yul\":4132:4150   */\n      0xffffffffffffffff\n        /* \"#utility.yul\":4124:4130   */\n      dup2\n        /* \"#utility.yul\":4121:4151   */\n      gt\n        /* \"#utility.yul\":4118:4235   */\n      iszero\n      tag_103\n      jumpi\n        /* \"#utility.yul\":4154:4233   */\n      tag_104\n      tag_29\n      jump\t// in\n    tag_104:\n        /* \"#utility.yul\":4118:4235   */\n    tag_103:\n        /* \"#utility.yul\":4259:4322   */\n      tag_105\n        /* \"#utility.yul\":4314:4321   */\n      dup5\n        /* \"#utility.yul\":4305:4311   */\n      dup3\n        /* \"#utility.yul\":4294:4303   */\n      dup6\n        /* \"#utility.yul\":4290:4312   */\n      add\n        /* \"#utility.yul\":4259:4322   */\n      tag_38\n      jump\t// in\n    tag_105:\n        /* \"#utility.yul\":4249:4322   */\n      swap2\n      pop\n        /* \"#utility.yul\":4045:4332   */\n      pop\n        /* \"#utility.yul\":3830:4339   */\n      swap3\n      swap2\n      pop\n      pop\n      jump\t// out\n        /* \"#utility.yul\":4345:4525   */\n    tag_39:\n        /* \"#utility.yul\":4393:4470   */\n      0x4e487b7100000000000000000000000000000000000000000000000000000000\n        /* \"#utility.yul\":4390:4391   */\n      0x00\n        /* \"#utility.yul\":4383:4471   */\n      mstore\n        /* \"#utility.yul\":4490:4494   */\n      0x22\n        /* \"#utility.yul\":4487:4488   */\n      0x04\n        /* \"#utility.yul\":4480:4495   */\n      mstore\n        /* \"#utility.yul\":4514:4518   */\n      0x24\n        /* \"#utility.yul\":4511:4512   */\n      0x00\n        /* \"#utility.yul\":4504:4519   */\n      revert\n        /* \"#utility.yul\":4531:4851   */\n    tag_14:\n        /* \"#utility.yul\":4575:4581   */\n      0x00\n        /* \"#utility.yul\":4612:4613   */\n      0x02\n        /* \"#utility.yul\":4606:4610   */\n      dup3\n        /* \"#utility.yul\":4602:4614   */\n      div\n        /* \"#utility.yul\":4592:4614   */\n      swap1\n      pop\n        /* \"#utility.yul\":4659:4660   */\n      0x01\n        /* \"#utility.yul\":4653:4657   */\n      dup3\n        /* \"#utility.yul\":4649:4661   */\n      and\n        /* \"#utility.yul\":4680:4698   */\n      dup1\n        /* \"#utility.yul\":4670:4751   */\n      tag_108\n      jumpi\n        /* \"#utility.yul\":4736:4740   */\n      0x7f\n        /* \"#utility.yul\":4728:4734   */\n      dup3\n        /* \"#utility.yul\":4724:4741   */\n      and\n        /* \"#utility.yul\":4714:4741   */\n      swap2\n      pop\n        /* \"#utility.yul\":4670:4751   */\n    tag_108:\n        /* \"#utility.yul\":4798:4800   */\n      0x20\n        /* \"#utility.yul\":4790:4796   */\n      dup3\n        /* \"#utility.yul\":4787:4801   */\n      lt\n        /* \"#utility.yul\":4767:4785   */\n      dup2\n        /* \"#utility.yul\":4764:4802   */\n      sub\n        /* \"#utility.yul\":4761:4845   */\n      tag_109\n      jumpi\n        /* \"#utility.yul\":4817:4835   */\n      tag_110\n      tag_39\n      jump\t// in\n    tag_110:\n        /* \"#utility.yul\":4761:4845   */\n    tag_109:\n        /* \"#utility.yul\":4582:4851   */\n      pop\n        /* \"#utility.yul\":4531:4851   */\n      swap2\n      swap1\n      pop\n      jump\t// out\n        /* \"#utility.yul\":4857:4998   */\n    tag_40:\n        /* \"#utility.yul\":4906:4910   */\n      0x00\n        /* \"#utility.yul\":4929:4932   */\n      dup2\n        /* \"#utility.yul\":4921:4932   */\n      swap1\n      pop\n        /* \"#utility.yul\":4952:4955   */\n      dup2\n        /* \"#utility.yul\":4949:4950   */\n      0x00\n        /* \"#utility.yul\":4942:4956   */\n      mstore\n        /* \"#utility.yul\":4986:4990   */\n      0x20\n        /* \"#utility.yul\":4983:4984   */\n      0x00\n        /* \"#utility.yul\":4973:4991   */\n      keccak256\n        /* \"#utility.yul\":4965:4991   */\n      swap1\n      pop\n        /* \"#utility.yul\":4857:4998   */\n      swap2\n      swap1\n      pop\n      jump\t// out\n        /* \"#utility.yul\":5004:5097   */\n    tag_41:\n        /* \"#utility.yul\":5041:5047   */\n      0x00\n        /* \"#utility.yul\":5088:5090   */\n      0x20\n        /* \"#utility.yul\":5083:5085   */\n      0x1f\n        /* \"#utility.yul\":5076:5081   */\n      dup4\n        /* \"#utility.yul\":5072:5086   */\n      add\n        /* \"#utility.yul\":5068:5091   */\n      div\n        /* \"#utility.yul\":5058:5091   */\n      swap1\n      pop\n        /* \"#utility.yul\":5004:5097   */\n      swap2\n      swap1\n      pop\n      jump\t// out\n        /* \"#utility.yul\":5103:5210   */\n    tag_42:\n        /* \"#utility.yul\":5147:5155   */\n      0x00\n        /* \"#utility.yul\":5197:5202   */\n      dup3\n        /* \"#utility.yul\":5191:5195   */\n      dup3\n        /* \"#utility.yul\":5187:5203   */\n      shl\n        /* \"#utility.yul\":5166:5203   */\n      swap1\n      pop\n        /* \"#utility.yul\":5103:5210   */\n      swap3\n      swap2\n      pop\n      pop\n      jump\t// out\n        /* \"#utility.yul\":5216:5609   */\n    tag_43:\n        /* \"#utility.yul\":5285:5291   */\n      0x00\n        /* \"#utility.yul\":5335:5336   */\n      0x08\n        /* \"#utility.yul\":5323:5333   */\n      dup4\n        /* \"#utility.yul\":5319:5337   */\n      mul\n        /* \"#utility.yul\":5358:5455   */\n      tag_115\n        /* \"#utility.yul\":5388:5454   */\n      0xffffffffffffffffffffffffffffffffffffffffffffffffffffffffffffffff\n        /* \"#utility.yul\":5377:5386   */\n      dup3\n        /* \"#utility.yul\":5358:5455   */\n      tag_42\n      jump\t// in\n    tag_115:\n        /* \"#utility.yul\":5476:5515   */\n      tag_116\n        /* \"#utility.yul\":5506:5514   */\n      dup7\n        /* \"#utility.yul\":5495:5504   */\n      dup4\n        /* \"#utility.yul\":5476:5515   */\n      tag_42\n      jump\t// in\n    tag_116:\n        /* \"#utility.yul\":5464:5515   */\n      swap6\n      pop\n        /* \"#utility.yul\":5548:5552   */\n      dup1\n        /* \"#utility.yul\":5544:5553   */\n      not\n        /* \"#utility.yul\":5537:5542   */\n      dup5\n        /* \"#utility.yul\":5533:5554   */\n      and\n        /* \"#utility.yul\":5524:5554   */\n      swap4\n      pop\n        /* \"#utility.yul\":5597:5601   */\n      dup1\n        /* \"#utility.yul\":5587:5595   */\n      dup7\n        /* \"#utility.yul\":5583:5602   */\n      and\n        /* \"#utility.yul\":5576:5581   */\n      dup5\n        /* \"#utility.yul\":5573:5603   */\n      or\n        /* \"#utility.yul\":5563:5603   */\n      swap3\n      pop\n        /* \"#utility.yul\":5292:5609   */\n      pop\n      pop\n        /* \"#utility.yul\":5216:5609   */\n      swap4\n      swap3\n      pop\n      pop\n      pop\n      jump\t// out\n        /* \"#utility.yul\":5615:5692   */\n    tag_44:\n        /* \"#utility.yul\":5652:5659   */\n      0x00\n        /* \"#utility.yul\":5681:5686   */\n      dup2\n        /* \"#utility.yul\":5670:5686   */\n      swap1\n      pop\n        /* \"#utility.yul\":5615:5692   */\n      swap2\n      swap1\n      pop\n      jump\t// out\n        /* \"#utility.yul\":5698:5758   */\n    tag_45:\n        /* \"#utility.yul\":5726:5729   */\n      0x00\n        /* \"#utility.yul\":5747:5752   */\n      dup2\n        /* \"#utility.yul\":5740:5752   */\n      swap1\n      pop\n        /* \"#utility.yul\":5698:5758   */\n      swap2\n      swap1\n      pop\n      jump\t// out\n        /* \"#utility.yul\":5764:5906   */\n    tag_46:\n        /* \"#utility.yul\":5814:5823   */\n      0x00\n        /* \"#utility.yul\":5847:5900   */\n      tag_120\n        /* \"#utility.yul\":5865:5899   */\n      tag_121\n        /* \"#utility.yul\":5874:5898   */\n      tag_122\n        /* \"#utility.yul\":5892:5897   */\n      dup5\n        /* \"#utility.yul\":5874:5898   */\n      tag_44\n      jump\t// in\n    tag_122:\n        /* \"#utility.yul\":5865:5899   */\n      tag_45\n      jump\t// in\n    tag_121:\n        /* \"#utility.yul\":5847:5900   */\n      tag_44\n      jump\t// in\n    tag_120:\n        /* \"#utility.yul\":5834:5900   */\n      swap1\n      pop\n        /* \"#utility.yul\":5764:5906   */\n      swap2\n      swap1\n      pop\n      jump\t// out\n        /* \"#utility.yul\":5912:5987   */\n    tag_47:\n        /* \"#utility.yul\":5955:5958   */\n      0x00\n        /* \"#utility.yul\":5976:5981   */\n      dup2\n        /* \"#utility.yul\":5969:5981   */\n      swap1\n      pop\n        /* \"#utility.yul\":5912:5987   */\n      swap2\n      swap1\n      pop\n      jump\t// out\n        /* \"#utility.yul\":5993:6262   */\n    tag_48:\n        /* \"#utility.yul\":6103:6142   */\n      tag_125\n        /* \"#utility.yul\":6134:6141   */\n      dup4\n        /* \"#utility.yul\":6103:6142   */\n      tag_46\n      jump\t// in\n    tag_125:\n        /* \"#utility.yul\":6164:6255   */\n      tag_126\n        /* \"#utility.yul\":6213:6254   */\n      tag_127\n        /* \"#utility.yul\":6237:6253   */\n      dup3\n        /* \"#utility.yul\":6213:6254   */\n      tag_47\n      jump\t// in\n    tag_127:\n        /* \"#utility.yul\":6205:6211   */\n      dup5\n        /* \"#utility.yul\":6198:6202   */\n      dup5\n        /* \"#utility.yul\":6192:6203   */\n      sload\n        /* \"#utility.yul\":6164:6255   */\n      tag_43\n      jump\t// in\n    tag_126:\n        /* \"#utility.yul\":6158:6162   */\n      dup3\n        /* \"#utility.yul\":6151:6256   */\n      sstore\n        /* \"#utility.yul\":6069:6262   */\n      pop\n        /* \"#utility.yul\":5993:6262   */\n      pop\n      pop\n      pop\n      jump\t// out\n        /* \"#utility.yul\":6268:6341   */\n    tag_49:\n        /* \"#utility.yul\":6313:6316   */\n      0x00\n        /* \"#utility.yul\":6268:6341   */\n      swap1\n      jump\t// out\n        /* \"#utility.yul\":6347:6536   */\n    tag_50:\n        /* \"#utility.yul\":6424:6456   */\n      tag_130\n      tag_49\n      jump\t// in\n    tag_130:\n        /* \"#utility.yul\":6465:6530   */\n      tag_131\n        /* \"#utility.yul\":6523:6529   */\n      dup2\n        /* \"#utility.yul\":6515:6521   */\n      dup5\n        /* \"#utility.yul\":6509:6513   */\n      dup5\n        /* \"#utility.yul\":6465:6530   */\n      tag_48\n      jump\t// in\n    tag_131:\n        /* \"#utility.yul\":6400:6536   */\n      pop\n        /* \"#utility.yul\":6347:6536   */\n      pop\n      pop\n      jump\t// out\n        /* \"#utility.yul\":6542:6728   */\n    tag_51:\n        /* \"#utility.yul\":6602:6722   */\n    tag_133:\n        /* \"#utility.yul\":6619:6622   */\n      dup2\n        /* \"#utility.yul\":6612:6617   */\n      dup2\n        /* \"#utility.yul\":6609:6623   */\n      lt\n        /* \"#utility.yul\":6602:6722   */\n      iszero\n      tag_135\n      jumpi\n        /* \"#utility.yul\":6673:6712   */\n      tag_136\n        /* \"#utility.yul\":6710:6711   */\n      0x00\n        /* \"#utility.yul\":6703:6708   */\n      dup3\n        /* \"#utility.yul\":6673:6712   */\n      tag_50\n      jump\t// in\n    tag_136:\n        /* \"#utility.yul\":6646:6647   */\n      0x01\n        /* \"#utility.yul\":6639:6644   */\n      dup2\n        /* \"#utility.yul\":6635:6648   */\n      add\n        /* \"#utility.yul\":6626:6648   */\n      swap1\n      pop\n        /* \"#utility.yul\":6602:6722   */\n      jump(tag_133)\n    tag_135:\n        /* \"#utility.yul\":6542:6728   */\n      pop\n      pop\n      jump\t// out\n        /* \"#utility.yul\":6734:7277   */\n    tag_52:\n        /* \"#utility.yul\":6835:6837   */\n      0x1f\n        /* \"#utility.yul\":6830:6833   */\n      dup3\n        /* \"#utility.yul\":6827:6838   */\n      gt\n        /* \"#utility.yul\":6824:7270   */\n      iszero\n      tag_138\n      jumpi\n        /* \"#utility.yul\":6869:6907   */\n      tag_139\n        /* \"#utility.yul\":6901:6906   */\n      dup2\n        /* \"#utility.yul\":6869:6907   */\n      tag_40\n      jump\t// in\n    tag_139:\n        /* \"#utility.yul\":6953:6982   */\n      tag_140\n        /* \"#utility.yul\":6971:6981   */\n      dup5\n        /* \"#utility.yul\":6953:6982   */\n      tag_41\n      jump\t// in\n    tag_140:\n        /* \"#utility.yul\":6943:6951   */\n      dup2\n        /* \"#utility.yul\":6939:6983   */\n      add\n        /* \"#utility.yul\":7136:7138   */\n      0x20\n        /* \"#utility.yul\":7124:7134   */\n      dup6\n        /* \"#utility.yul\":7121:7139   */\n      lt\n        /* \"#utility.yul\":7118:7167   */\n      iszero\n      tag_141\n      jumpi\n        /* \"#utility.yul\":7157:7165   */\n      dup2\n        /* \"#utility.yul\":7142:7165   */\n      swap1\n      pop\n        /* \"#utility.yul\":7118:7167   */\n    tag_141:\n        /* \"#utility.yul\":7180:7260   */\n      tag_142\n        /* \"#utility.yul\":7236:7258   */\n      tag_143\n        /* \"#utility.yul\":7254:7257   */\n      dup6\n        /* \"#utility.yul\":7236:7258   */\n      tag_41\n      jump\t// in\n    tag_143:\n        /* \"#utility.yul\":7226:7234   */\n      dup4\n        /* \"#utility.yul\":7222:7259   */\n      add\n        /* \"#utility.yul\":7209:7220   */\n      dup3\n        /* \"#utility.yul\":7180:7260   */\n      tag_51\n      jump\t// in\n    tag_142:\n        /* \"#utility.yul\":6839:7270   */\n      pop\n      pop\n        /* \"#utility.yul\":6824:7270   */\n    tag_138:\n        /* \"#utility.yul\":6734:7277   */\n      pop\n      pop\n      pop\n      jump\t// out\n        /* \"#utility.yul\":7283:7400   */\n    tag_53:\n        /* \"#utility.yul\":7337:7345   */\n      0x00\n        /* \"#utility.yul\":7387:7392   */\n      dup3\n        /* \"#utility.yul\":7381:7385   */\n      dup3\n        /* \"#utility.yul\":7377:7393   */\n      shr\n        /* \"#utility.yul\":7356:7393   */\n      swap1\n      pop\n        /* \"#utility.yul\":7283:7400   */\n      swap3\n      swap2\n      pop\n      pop\n      jump\t// out\n        /* \"#utility.yul\":7406:7575   */\n    tag_54:\n        /* \"#utility.yul\":7450:7456   */\n      0x00\n        /* \"#utility.yul\":7483:7534   */\n      tag_146\n        /* \"#utility.yul\":7531:7532   */\n      0x00\n        /* \"#utility.yul\":7527:7533   */\n      not\n        /* \"#utility.yul\":7519:7524   */\n      dup5\n        /* \"#utility.yul\":7516:7517   */\n      0x08\n        /* \"#utility.yul\":7512:7525   */\n      mul\n        /* \"#utility.yul\":7483:7534   */\n      tag_53\n      jump\t// in\n    tag_146:\n        /* \"#utility.yul\":7479:7535   */\n      not\n        /* \"#utility.yul\":7564:7568   */\n      dup1\n        /* \"#utility.yul\":7558:7562   */\n      dup4\n        /* \"#utility.yul\":7554:7569   */\n      and\n        /* \"#utility.yul\":7544:7569   */\n      swap2\n      pop\n        /* \"#utility.yul\":7457:7575   */\n      pop\n        /* \"#utility.yul\":7406:7575   */\n      swap3\n      swap2\n      pop\n      pop\n      jump\t// out\n        /* \"#utility.yul\":7580:7875   */\n    tag_55:\n        /* \"#utility.yul\":7656:7660   */\n      0x00\n        /* \"#utility.yul\":7802:7831   */\n      tag_148\n        /* \"#utility.yul\":7827:7830   */\n      dup4\n        /* \"#utility.yul\":7821:7825   */\n      dup4\n        /* \"#utility.yul\":7802:7831   */\n      tag_54\n      jump\t// in\n    tag_148:\n        /* \"#utility.yul\":7794:7831   */\n      swap2\n      pop\n        /* \"#utility.yul\":7864:7867   */\n      dup3\n        /* \"#utility.yul\":7861:7862   */\n      0x02\n        /* \"#utility.yul\":7857:7868   */\n      mul\n        /* \"#utility.yul\":7851:7855   */\n      dup3\n        /* \"#utility.yul\":7848:7869   */\n      or\n        /* \"#utility.yul\":7840:7869   */\n      swap1\n      pop\n        /* \"#utility.yul\":7580:7875   */\n      swap3\n      swap2\n      pop\n      pop\n      jump\t// out\n        /* \"#utility.yul\":7880:9275   */\n    tag_21:\n        /* \"#utility.yul\":7997:8034   */\n      tag_150\n        /* \"#utility.yul\":8030:8033   */\n      dup3\n        /* \"#utility.yul\":7997:8034   */\n      tag_22\n      jump\t// in\n    tag_150:\n        /* \"#utility.yul\":8099:8117   */\n      0xffffffffffffffff\n        /* \"#utility.yul\":8091:8097   */\n      dup2\n        /* \"#utility.yul\":8088:8118   */\n      gt\n        /* \"#utility.yul\":8085:8141   */\n      iszero\n      tag_151\n      jumpi\n        /* \"#utility.yul\":8121:8139   */\n      tag_152\n      tag_32\n      jump\t// in\n    tag_152:\n        /* \"#utility.yul\":8085:8141   */\n    tag_151:\n        /* \"#utility.yul\":8165:8203   */\n      tag_153\n        /* \"#utility.yul\":8197:8201   */\n      dup3\n        /* \"#utility.yul\":8191:8202   */\n      sload\n        /* \"#utility.yul\":8165:8203   */\n      tag_14\n      jump\t// in\n    tag_153:\n        /* \"#utility.yul\":8250:8317   */\n      tag_154\n        /* \"#utility.yul\":8310:8316   */\n      dup3\n        /* \"#utility.yul\":8302:8308   */\n      dup3\n        /* \"#utility.yul\":8296:8300   */\n      dup6\n        /* \"#utility.yul\":8250:8317   */\n      tag_52\n      jump\t// in\n    tag_154:\n        /* \"#utility.yul\":8344:8345   */\n      0x00\n        /* \"#utility.yul\":8368:8372   */\n      0x20\n        /* \"#utility.yul\":8355:8372   */\n      swap1\n      pop\n        /* \"#utility.yul\":8400:8402   */\n      0x1f\n        /* \"#utility.yul\":8392:8398   */\n      dup4\n        /* \"#utility.yul\":8389:8403   */\n      gt\n        /* \"#utility.yul\":8417:8418   */\n      0x01\n        /* \"#utility.yul\":8412:9030   */\n      dup2\n      eq\n      tag_156\n      jumpi\n        /* \"#utility.yul\":9074:9075   */\n      0x00\n        /* \"#utility.yul\":9091:9097   */\n      dup5\n        /* \"#utility.yul\":9088:9165   */\n      iszero\n      tag_157\n      jumpi\n        /* \"#utility.yul\":9140:9149   */\n      dup3\n        /* \"#utility.yul\":9135:9138   */\n      dup8\n        /* \"#utility.yul\":9131:9150   */\n      add\n        /* \"#utility.yul\":9125:9151   */\n      mload\n        /* \"#utility.yul\":9116:9151   */\n      swap1\n      pop\n        /* \"#utility.yul\":9088:9165   */\n    tag_157:\n        /* \"#utility.yul\":9191:9258   */\n      tag_158\n        /* \"#utility.yul\":9251:9257   */\n      dup6\n        /* \"#utility.yul\":9244:9249   */\n      dup3\n        /* \"#utility.yul\":9191:9258   */\n      tag_55\n      jump\t// in\n    tag_158:\n        /* \"#utility.yul\":9185:9189   */\n      dup7\n        /* \"#utility.yul\":9178:9259   */\n      sstore\n        /* \"#utility.yul\":9047:9269   */\n      pop\n        /* \"#utility.yul\":8382:9269   */\n      jump(tag_155)\n        /* \"#utility.yul\":8412:9030   */\n    tag_156:\n        /* \"#utility.yul\":8464:8468   */\n      0x1f\n        /* \"#utility.yul\":8460:8469   */\n      not\n        /* \"#utility.yul\":8452:8458   */\n      dup5\n        /* \"#utility.yul\":8448:8470   */\n      and\n        /* \"#utility.yul\":8498:8535   */\n      tag_159\n        /* \"#utility.yul\":8530:8534   */\n      dup7\n        /* \"#utility.yul\":8498:8535   */\n      tag_40\n      jump\t// in\n    tag_159:\n        /* \"#utility.yul\":8557:8558   */\n      0x00\n        /* \"#utility.yul\":8571:8779   */\n    tag_160:\n        /* \"#utility.yul\":8585:8592   */\n      dup3\n        /* \"#utility.yul\":8582:8583   */\n      dup2\n        /* \"#utility.yul\":8579:8593   */\n      lt\n        /* \"#utility.yul\":8571:8779   */\n      iszero\n      tag_162\n      jumpi\n        /* \"#utility.yul\":8664:8673   */\n      dup5\n        /* \"#utility.yul\":8659:8662   */\n      dup10\n        /* \"#utility.yul\":8655:8674   */\n      add\n        /* \"#utility.yul\":8649:8675   */\n      mload\n        /* \"#utility.yul\":8641:8647   */\n      dup3\n        /* \"#utility.yul\":8634:8676   */\n      sstore\n        /* \"#utility.yul\":8715:8716   */\n      0x01\n        /* \"#utility.yul\":8707:8713   */\n      dup3\n        /* \"#utility.yul\":8703:8717   */\n      add\n        /* \"#utility.yul\":8693:8717   */\n      swap2\n      pop\n        /* \"#utility.yul\":8762:8764   */\n      0x20\n        /* \"#utility.yul\":8751:8760   */\n      dup6\n        /* \"#utility.yul\":8747:8765   */\n      add\n        /* \"#utility.yul\":8734:8765   */\n      swap5\n      pop\n        /* \"#utility.yul\":8608:8612   */\n      0x20\n        /* \"#utility.yul\":8605:8606   */\n      dup2\n        /* \"#utility.yul\":8601:8613   */\n      add\n        /* \"#utility.yul\":8596:8613   */\n      swap1\n      pop\n        /* \"#utility.yul\":8571:8779   */\n      jump(tag_160)\n    tag_162:\n        /* \"#utility.yul\":8807:8813   */\n      dup7\n        /* \"#utility.yul\":8798:8805   */\n      dup4\n        /* \"#utility.yul\":8795:8814   */\n      lt\n        /* \"#utility.yul\":8792:8971   */\n      iszero\n      tag_163\n      jumpi\n        /* \"#utility.yul\":8865:8874   */\n      dup5\n        /* \"#utility.yul\":8860:8863   */\n      dup10\n        /* \"#utility.yul\":8856:8875   */\n      add\n        /* \"#utility.yul\":8850:8876   */\n      mload\n        /* \"#utility.yul\":8908:8956   */\n      tag_164\n        /* \"#utility.yul\":8950:8954   */\n      0x1f\n        /* \"#utility.yul\":8942:8948   */\n      dup10\n        /* \"#utility.yul\":8938:8955   */\n      and\n        /* \"#utility.yul\":8927:8936   */\n      dup3\n        /* \"#utility.yul\":8908:8956   */\n      tag_54\n      jump\t// in\n    tag_164:\n        /* \"#utility.yul\":8900:8906   */\n      dup4\n        /* \"#utility.yul\":8893:8957   */\n      sstore\n        /* \"#utility.yul\":8815:8971   */\n      pop\n        /* \"#utility.yul\":8792:8971   */\n    tag_163:\n        /* \"#utility.yul\":9017:9018   */\n      0x01\n        /* \"#utility.yul\":9013:9014   */\n      0x02\n        /* \"#utility.yul\":9005:9011   */\n      dup9\n        /* \"#utility.yul\":9001:9015   */\n      mul\n        /* \"#utility.yul\":8997:9019   */\n      add\n        /* \"#utility.yul\":8991:8995   */\n      dup9\n        /* \"#utility.yul\":8984:9020   */\n      sstore\n        /* \"#utility.yul\":8419:9030   */\n      pop\n      pop\n      pop\n        /* \"#utility.yul\":8382:9269   */\n    tag_155:\n      pop\n        /* \"#utility.yul\":7972:9275   */\n      pop\n      pop\n      pop\n        /* \"#utility.yul\":7880:9275   */\n      pop\n      pop\n      jump\t// out\n\n    auxdata: 0xa2646970667358221220a20857e713a3a089b308185e4f711174da747cc1102d6ea1083d13ea6e5d75f364736f6c634300080f0033\n}\n",
				"bytecode": {
					"linkReferences": {},
					"object": "608060405234801561001057600080fd5b50610681806100206000396000f3fe608060405234801561001057600080fd5b50600436106100365760003560e01c8063492bfa181461003b578063eb4350b614610059575b600080fd5b610043610075565b60405161005091906101af565b60405180910390f35b610073600480360381019061006e919061031a565b610103565b005b6000805461008290610392565b80601f01602080910402602001604051908101604052809291908181526020018280546100ae90610392565b80156100fb5780601f106100d0576101008083540402835291602001916100fb565b820191906000526020600020905b8154815290600101906020018083116100de57829003601f168201915b505050505081565b80600090816101129190610579565b5050565b600081519050919050565b600082825260208201905092915050565b60005b83811015610150578082015181840152602081019050610135565b8381111561015f576000848401525b50505050565b6000601f19601f8301169050919050565b600061018182610116565b61018b8185610121565b935061019b818560208601610132565b6101a481610165565b840191505092915050565b600060208201905081810360008301526101c98184610176565b905092915050565b6000604051905090565b600080fd5b600080fd5b600080fd5b600080fd5b7f4e487b7100000000000000000000000000000000000000000000000000000000600052604160045260246000fd5b61022782610165565b810181811067ffffffffffffffff82111715610246576102456101ef565b5b80604052505050565b60006102596101d1565b9050610265828261021e565b919050565b600067ffffffffffffffff821115610285576102846101ef565b5b61028e82610165565b9050602081019050919050565b82818337600083830152505050565b60006102bd6102b88461026a565b61024f565b9050828152602081018484840111156102d9576102d86101ea565b5b6102e484828561029b565b509392505050565b600082601f830112610301576103006101e5565b5b81356103118482602086016102aa565b91505092915050565b6000602082840312156103305761032f6101db565b5b600082013567ffffffffffffffff81111561034e5761034d6101e0565b5b61035a848285016102ec565b91505092915050565b7f4e487b7100000000000000000000000000000000000000000000000000000000600052602260045260246000fd5b600060028204905060018216806103aa57607f821691505b6020821081036103bd576103bc610363565b5b50919050565b60008190508160005260206000209050919050565b60006020601f8301049050919050565b600082821b905092915050565b6000600883026104257fffffffffffffffffffffffffffffffffffffffffffffffffffffffffffffffff826103e8565b61042f86836103e8565b95508019841693508086168417925050509392505050565b6000819050919050565b6000819050919050565b600061047661047161046c84610447565b610451565b610447565b9050919050565b6000819050919050565b6104908361045b565b6104a461049c8261047d565b8484546103f5565b825550505050565b600090565b6104b96104ac565b6104c4818484610487565b505050565b5b818110156104e8576104dd6000826104b1565b6001810190506104ca565b5050565b601f82111561052d576104fe816103c3565b610507846103d8565b81016020851015610516578190505b61052a610522856103d8565b8301826104c9565b50505b505050565b600082821c905092915050565b600061055060001984600802610532565b1980831691505092915050565b6000610569838361053f565b9150826002028217905092915050565b61058282610116565b67ffffffffffffffff81111561059b5761059a6101ef565b5b6105a58254610392565b6105b08282856104ec565b600060209050601f8311600181146105e357600084156105d1578287015190505b6105db858261055d565b865550610643565b601f1984166105f1866103c3565b60005b82811015610619578489015182556001820191506020850194506020810190506105f4565b868310156106365784890151610632601f89168261053f565b8355505b6001600288020188555050505b50505050505056fea2646970667358221220a20857e713a3a089b308185e4f711174da747cc1102d6ea1083d13ea6e5d75f364736f6c634300080f0033",
					"opcodes": "PUSH1 0x80 PUSH1 0x40 MSTORE CALLVALUE DUP1 ISZERO PUSH2 0x10 JUMPI PUSH1 0x0 DUP1 REVERT JUMPDEST POP PUSH2 0x681 DUP1 PUSH2 0x20 PUSH1 0x0 CODECOPY PUSH1 0x0 RETURN INVALID PUSH1 0x80 PUSH1 0x40 MSTORE CALLVALUE DUP1 ISZERO PUSH2 0x10 JUMPI PUSH1 0x0 DUP1 REVERT JUMPDEST POP PUSH1 0x4 CALLDATASIZE LT PUSH2 0x36 JUMPI PUSH1 0x0 CALLDATALOAD PUSH1 0xE0 SHR DUP1 PUSH4 0x492BFA18 EQ PUSH2 0x3B JUMPI DUP1 PUSH4 0xEB4350B6 EQ PUSH2 0x59 JUMPI JUMPDEST PUSH1 0x0 DUP1 REVERT JUMPDEST PUSH2 0x43 PUSH2 0x75 JUMP JUMPDEST PUSH1 0x40 MLOAD PUSH2 0x50 SWAP2 SWAP1 PUSH2 0x1AF JUMP JUMPDEST PUSH1 0x40 MLOAD DUP1 SWAP2 SUB SWAP1 RETURN JUMPDEST PUSH2 0x73 PUSH1 0x4 DUP1 CALLDATASIZE SUB DUP2 ADD SWAP1 PUSH2 0x6E SWAP2 SWAP1 PUSH2 0x31A JUMP JUMPDEST PUSH2 0x103 JUMP JUMPDEST STOP JUMPDEST PUSH1 0x0 DUP1 SLOAD PUSH2 0x82 SWAP1 PUSH2 0x392 JUMP JUMPDEST DUP1 PUSH1 0x1F ADD PUSH1 0x20 DUP1 SWAP2 DIV MUL PUSH1 0x20 ADD PUSH1 0x40 MLOAD SWAP1 DUP2 ADD PUSH1 0x40 MSTORE DUP1 SWAP3 SWAP2 SWAP1 DUP2 DUP2 MSTORE PUSH1 0x20 ADD DUP3 DUP1 SLOAD PUSH2 0xAE SWAP1 PUSH2 0x392 JUMP JUMPDEST DUP1 ISZERO PUSH2 0xFB JUMPI DUP1 PUSH1 0x1F LT PUSH2 0xD0 JUMPI PUSH2 0x100 DUP1 DUP4 SLOAD DIV MUL DUP4 MSTORE SWAP2 PUSH1 0x20 ADD SWAP2 PUSH2 0xFB JUMP JUMPDEST DUP3 ADD SWAP2 SWAP1 PUSH1 0x0 MSTORE PUSH1 0x20 PUSH1 0x0 KECCAK256 SWAP1 JUMPDEST DUP2 SLOAD DUP2 MSTORE SWAP1 PUSH1 0x1 ADD SWAP1 PUSH1 0x20 ADD DUP1 DUP4 GT PUSH2 0xDE JUMPI DUP3 SWAP1 SUB PUSH1 0x1F AND DUP3 ADD SWAP2 JUMPDEST POP POP POP POP POP DUP2 JUMP JUMPDEST DUP1 PUSH1 0x0 SWAP1 DUP2 PUSH2 0x112 SWAP2 SWAP1 PUSH2 0x579 JUMP JUMPDEST POP POP JUMP JUMPDEST PUSH1 0x0 DUP2 MLOAD SWAP1 POP SWAP2 SWAP1 POP JUMP JUMPDEST PUSH1 0x0 DUP3 DUP3 MSTORE PUSH1 0x20 DUP3 ADD SWAP1 POP SWAP3 SWAP2 POP POP JUMP JUMPDEST PUSH1 0x0 JUMPDEST DUP4 DUP2 LT ISZERO PUSH2 0x150 JUMPI DUP1 DUP3 ADD MLOAD DUP2 DUP5 ADD MSTORE PUSH1 0x20 DUP2 ADD SWAP1 POP PUSH2 0x135 JUMP JUMPDEST DUP4 DUP2 GT ISZERO PUSH2 0x15F JUMPI PUSH1 0x0 DUP5 DUP5 ADD MSTORE JUMPDEST POP POP POP POP JUMP JUMPDEST PUSH1 0x0 PUSH1 0x1F NOT PUSH1 0x1F DUP4 ADD AND SWAP1 POP SWAP2 SWAP1 POP JUMP JUMPDEST PUSH1 0x0 PUSH2 0x181 DUP3 PUSH2 0x116 JUMP JUMPDEST PUSH2 0x18B DUP2 DUP6 PUSH2 0x121 JUMP JUMPDEST SWAP4 POP PUSH2 0x19B DUP2 DUP6 PUSH1 0x20 DUP7 ADD PUSH2 0x132 JUMP JUMPDEST PUSH2 0x1A4 DUP2 PUSH2 0x165 JUMP JUMPDEST DUP5 ADD SWAP2 POP POP SWAP3 SWAP2 POP POP JUMP JUMPDEST PUSH1 0x0 PUSH1 0x20 DUP3 ADD SWAP1 POP DUP2 DUP2 SUB PUSH1 0x0 DUP4 ADD MSTORE PUSH2 0x1C9 DUP2 DUP5 PUSH2 0x176 JUMP JUMPDEST SWAP1 POP SWAP3 SWAP2 POP POP JUMP JUMPDEST PUSH1 0x0 PUSH1 0x40 MLOAD SWAP1 POP SWAP1 JUMP JUMPDEST PUSH1 0x0 DUP1 REVERT JUMPDEST PUSH1 0x0 DUP1 REVERT JUMPDEST PUSH1 0x0 DUP1 REVERT JUMPDEST PUSH1 0x0 DUP1 REVERT JUMPDEST PUSH32 0x4E487B7100000000000000000000000000000000000000000000000000000000 PUSH1 0x0 MSTORE PUSH1 0x41 PUSH1 0x4 MSTORE PUSH1 0x24 PUSH1 0x0 REVERT JUMPDEST PUSH2 0x227 DUP3 PUSH2 0x165 JUMP JUMPDEST DUP2 ADD DUP2 DUP2 LT PUSH8 0xFFFFFFFFFFFFFFFF DUP3 GT OR ISZERO PUSH2 0x246 JUMPI PUSH2 0x245 PUSH2 0x1EF JUMP JUMPDEST JUMPDEST DUP1 PUSH1 0x40 MSTORE POP POP POP JUMP JUMPDEST PUSH1 0x0 PUSH2 0x259 PUSH2 0x1D1 JUMP JUMPDEST SWAP1 POP PUSH2 0x265 DUP3 DUP3 PUSH2 0x21E JUMP JUMPDEST SWAP2 SWAP1 POP JUMP JUMPDEST PUSH1 0x0 PUSH8 0xFFFFFFFFFFFFFFFF DUP3 GT ISZERO PUSH2 0x285 JUMPI PUSH2 0x284 PUSH2 0x1EF JUMP JUMPDEST JUMPDEST PUSH2 0x28E DUP3 PUSH2 0x165 JUMP JUMPDEST SWAP1 POP PUSH1 0x20 DUP2 ADD SWAP1 POP SWAP2 SWAP1 POP JUMP JUMPDEST DUP3 DUP2 DUP4 CALLDATACOPY PUSH1 0x0 DUP4 DUP4 ADD MSTORE POP POP POP JUMP JUMPDEST PUSH1 0x0 PUSH2 0x2BD PUSH2 0x2B8 DUP5 PUSH2 0x26A JUMP JUMPDEST PUSH2 0x24F JUMP JUMPDEST SWAP1 POP DUP3 DUP2 MSTORE PUSH1 0x20 DUP2 ADD DUP5 DUP5 DUP5 ADD GT ISZERO PUSH2 0x2D9 JUMPI PUSH2 0x2D8 PUSH2 0x1EA JUMP JUMPDEST JUMPDEST PUSH2 0x2E4 DUP5 DUP3 DUP6 PUSH2 0x29B JUMP JUMPDEST POP SWAP4 SWAP3 POP POP POP JUMP JUMPDEST PUSH1 0x0 DUP3 PUSH1 0x1F DUP4 ADD SLT PUSH2 0x301 JUMPI PUSH2 0x300 PUSH2 0x1E5 JUMP JUMPDEST JUMPDEST DUP2 CALLDATALOAD PUSH2 0x311 DUP5 DUP3 PUSH1 0x20 DUP7 ADD PUSH2 0x2AA JUMP JUMPDEST SWAP2 POP POP SWAP3 SWAP2 POP POP JUMP JUMPDEST PUSH1 0x0 PUSH1 0x20 DUP3 DUP5 SUB SLT ISZERO PUSH2 0x330 JUMPI PUSH2 0x32F PUSH2 0x1DB JUMP JUMPDEST JUMPDEST PUSH1 0x0 DUP3 ADD CALLDATALOAD PUSH8 0xFFFFFFFFFFFFFFFF DUP2 GT ISZERO PUSH2 0x34E JUMPI PUSH2 0x34D PUSH2 0x1E0 JUMP JUMPDEST JUMPDEST PUSH2 0x35A DUP5 DUP3 DUP6 ADD PUSH2 0x2EC JUMP JUMPDEST SWAP2 POP POP SWAP3 SWAP2 POP POP JUMP JUMPDEST PUSH32 0x4E487B7100000000000000000000000000000000000000000000000000000000 PUSH1 0x0 MSTORE PUSH1 0x22 PUSH1 0x4 MSTORE PUSH1 0x24 PUSH1 0x0 REVERT JUMPDEST PUSH1 0x0 PUSH1 0x2 DUP3 DIV SWAP1 POP PUSH1 0x1 DUP3 AND DUP1 PUSH2 0x3AA JUMPI PUSH1 0x7F DUP3 AND SWAP2 POP JUMPDEST PUSH1 0x20 DUP3 LT DUP2 SUB PUSH2 0x3BD JUMPI PUSH2 0x3BC PUSH2 0x363 JUMP JUMPDEST JUMPDEST POP SWAP2 SWAP1 POP JUMP JUMPDEST PUSH1 0x0 DUP2 SWAP1 POP DUP2 PUSH1 0x0 MSTORE PUSH1 0x20 PUSH1 0x0 KECCAK256 SWAP1 POP SWAP2 SWAP1 POP JUMP JUMPDEST PUSH1 0x0 PUSH1 0x20 PUSH1 0x1F DUP4 ADD DIV SWAP1 POP SWAP2 SWAP1 POP JUMP JUMPDEST PUSH1 0x0 DUP3 DUP3 SHL SWAP1 POP SWAP3 SWAP2 POP POP JUMP JUMPDEST PUSH1 0x0 PUSH1 0x8 DUP4 MUL PUSH2 0x425 PUSH32 0xFFFFFFFFFFFFFFFFFFFFFFFFFFFFFFFFFFFFFFFFFFFFFFFFFFFFFFFFFFFFFFFF DUP3 PUSH2 0x3E8 JUMP JUMPDEST PUSH2 0x42F DUP7 DUP4 PUSH2 0x3E8 JUMP JUMPDEST SWAP6 POP DUP1 NOT DUP5 AND SWAP4 POP DUP1 DUP7 AND DUP5 OR SWAP3 POP POP POP SWAP4 SWAP3 POP POP POP JUMP JUMPDEST PUSH1 0x0 DUP2 SWAP1 POP SWAP2 SWAP1 POP JUMP JUMPDEST PUSH1 0x0 DUP2 SWAP1 POP SWAP2 SWAP1 POP JUMP JUMPDEST PUSH1 0x0 PUSH2 0x476 PUSH2 0x471 PUSH2 0x46C DUP5 PUSH2 0x447 JUMP JUMPDEST PUSH2 0x451 JUMP JUMPDEST PUSH2 0x447 JUMP JUMPDEST SWAP1 POP SWAP2 SWAP1 POP JUMP JUMPDEST PUSH1 0x0 DUP2 SWAP1 POP SWAP2 SWAP1 POP JUMP JUMPDEST PUSH2 0x490 DUP4 PUSH2 0x45B JUMP JUMPDEST PUSH2 0x4A4 PUSH2 0x49C DUP3 PUSH2 0x47D JUMP JUMPDEST DUP5 DUP5 SLOAD PUSH2 0x3F5 JUMP JUMPDEST DUP3 SSTORE POP POP POP POP JUMP JUMPDEST PUSH1 0x0 SWAP1 JUMP JUMPDEST PUSH2 0x4B9 PUSH2 0x4AC JUMP JUMPDEST PUSH2 0x4C4 DUP2 DUP5 DUP5 PUSH2 0x487 JUMP JUMPDEST POP POP POP JUMP JUMPDEST JUMPDEST DUP2 DUP2 LT ISZERO PUSH2 0x4E8 JUMPI PUSH2 0x4DD PUSH1 0x0 DUP3 PUSH2 0x4B1 JUMP JUMPDEST PUSH1 0x1 DUP2 ADD SWAP1 POP PUSH2 0x4CA JUMP JUMPDEST POP POP JUMP JUMPDEST PUSH1 0x1F DUP3 GT ISZERO PUSH2 0x52D JUMPI PUSH2 0x4FE DUP2 PUSH2 0x3C3 JUMP JUMPDEST PUSH2 0x507 DUP5 PUSH2 0x3D8 JUMP JUMPDEST DUP2 ADD PUSH1 0x20 DUP6 LT ISZERO PUSH2 0x516 JUMPI DUP2 SWAP1 POP JUMPDEST PUSH2 0x52A PUSH2 0x522 DUP6 PUSH2 0x3D8 JUMP JUMPDEST DUP4 ADD DUP3 PUSH2 0x4C9 JUMP JUMPDEST POP POP JUMPDEST POP POP POP JUMP JUMPDEST PUSH1 0x0 DUP3 DUP3 SHR SWAP1 POP SWAP3 SWAP2 POP POP JUMP JUMPDEST PUSH1 0x0 PUSH2 0x550 PUSH1 0x0 NOT DUP5 PUSH1 0x8 MUL PUSH2 0x532 JUMP JUMPDEST NOT DUP1 DUP4 AND SWAP2 POP POP SWAP3 SWAP2 POP POP JUMP JUMPDEST PUSH1 0x0 PUSH2 0x569 DUP4 DUP4 PUSH2 0x53F JUMP JUMPDEST SWAP2 POP DUP3 PUSH1 0x2 MUL DUP3 OR SWAP1 POP SWAP3 SWAP2 POP POP JUMP JUMPDEST PUSH2 0x582 DUP3 PUSH2 0x116 JUMP JUMPDEST PUSH8 0xFFFFFFFFFFFFFFFF DUP2 GT ISZERO PUSH2 0x59B JUMPI PUSH2 0x59A PUSH2 0x1EF JUMP JUMPDEST JUMPDEST PUSH2 0x5A5 DUP3 SLOAD PUSH2 0x392 JUMP JUMPDEST PUSH2 0x5B0 DUP3 DUP3 DUP6 PUSH2 0x4EC JUMP JUMPDEST PUSH1 0x0 PUSH1 0x20 SWAP1 POP PUSH1 0x1F DUP4 GT PUSH1 0x1 DUP2 EQ PUSH2 0x5E3 JUMPI PUSH1 0x0 DUP5 ISZERO PUSH2 0x5D1 JUMPI DUP3 DUP8 ADD MLOAD SWAP1 POP JUMPDEST PUSH2 0x5DB DUP6 DUP3 PUSH2 0x55D JUMP JUMPDEST DUP7 SSTORE POP PUSH2 0x643 JUMP JUMPDEST PUSH1 0x1F NOT DUP5 AND PUSH2 0x5F1 DUP7 PUSH2 0x3C3 JUMP JUMPDEST PUSH1 0x0 JUMPDEST DUP3 DUP2 LT ISZERO PUSH2 0x619 JUMPI DUP5 DUP10 ADD MLOAD DUP3 SSTORE PUSH1 0x1 DUP3 ADD SWAP2 POP PUSH1 0x20 DUP6 ADD SWAP5 POP PUSH1 0x20 DUP2 ADD SWAP1 POP PUSH2 0x5F4 JUMP JUMPDEST DUP7 DUP4 LT ISZERO PUSH2 0x636 JUMPI DUP5 DUP10 ADD MLOAD PUSH2 0x632 PUSH1 0x1F DUP10 AND DUP3 PUSH2 0x53F JUMP JUMPDEST DUP4 SSTORE POP JUMPDEST PUSH1 0x1 PUSH1 0x2 DUP9 MUL ADD DUP9 SSTORE POP POP POP JUMPDEST POP POP POP POP POP POP JUMP INVALID LOG2 PUSH5 0x6970667358 0x22 SLT KECCAK256 LOG2 ADDMOD JUMPI 0xE7 SGT LOG3 LOG0 DUP10 0xB3 ADDMOD XOR 0x5E 0x4F PUSH18 0x1174DA747CC1102D6EA1083D13EA6E5D75F3 PUSH5 0x736F6C6343 STOP ADDMOD 0xF STOP CALLER "
				},
				"gasEstimates": {
					"creation": {
						"codeDepositCost": "333000",
						"executionCost": "374",
						"totalCost": "333374"
					},
					"external": {
						"myString()": "infinite",
						"upadteString(string)": "infinite"
					}
				},
				"methodIdentifiers": {
					"myString()": "492bfa18",
					"upadteString(string)": "eb4350b6"
				}
			},
			"storageLayout": {
				"storage": [
					{
						"astId": 3,
						"contract": "contracts/SampleDeployemnt.sol:SampleDeployement",
						"label": "myString",
						"offset": 0,
						"slot": "0",
						"type": "t_string_storage"
					}
				],
				"types": {
					"t_string_storage": {
						"encoding": "bytes",
						"label": "string",
						"numberOfBytes": "32"
					}
				}
			},
			"userdoc": {
				"kind": "user",
				"methods": {},
				"version": 1
			}
		}
	}
}