{
	"contracts/ExampleBoolean.sol": {
		"ExampleBoolean": {
			"abi": [
				{
					"inputs": [
						{
							"internalType": "bool",
							"name": "_myBool",
							"type": "bool"
						}
					],
					"name": "setMyBool",
					"outputs": [],
					"stateMutability": "nonpayable",
					"type": "function"
				}
			],
			"devdoc": {
				"kind": "dev",
				"methods": {},
				"version": 1
			},
			"evm": {
				"assembly": "    /* \"contracts/ExampleBoolean.sol\":61:223  contract ExampleBoolean {... */\n  mstore(0x40, 0x80)\n  callvalue\n  dup1\n  iszero\n  tag_1\n  jumpi\n  0x00\n  dup1\n  revert\ntag_1:\n  pop\n  dataSize(sub_0)\n  dup1\n  dataOffset(sub_0)\n  0x00\n  codecopy\n  0x00\n  return\nstop\n\nsub_0: assembly {\n        /* \"contracts/ExampleBoolean.sol\":61:223  contract ExampleBoolean {... */\n      mstore(0x40, 0x80)\n      callvalue\n      dup1\n      iszero\n      tag_1\n      jumpi\n      0x00\n      dup1\n      revert\n    tag_1:\n      pop\n      jumpi(tag_2, lt(calldatasize, 0x04))\n      shr(0xe0, calldataload(0x00))\n      dup1\n      0xeb1b30d9\n      eq\n      tag_3\n      jumpi\n    tag_2:\n      0x00\n      dup1\n      revert\n        /* \"contracts/ExampleBoolean.sol\":143:218  function setMyBool(bool _myBool) public {... */\n    tag_3:\n      tag_4\n      0x04\n      dup1\n      calldatasize\n      sub\n      dup2\n      add\n      swap1\n      tag_5\n      swap2\n      swap1\n      tag_6\n      jump\t// in\n    tag_5:\n      tag_7\n      jump\t// in\n    tag_4:\n      stop\n    tag_7:\n        /* \"contracts/ExampleBoolean.sol\":203:210  _myBool */\n      dup1\n        /* \"contracts/ExampleBoolean.sol\":194:200  myBool */\n      0x00\n      dup1\n        /* \"contracts/ExampleBoolean.sol\":194:210  myBool = _myBool */\n      0x0100\n      exp\n      dup2\n      sload\n      dup2\n      0xff\n      mul\n      not\n      and\n      swap1\n      dup4\n      iszero\n      iszero\n      mul\n      or\n      swap1\n      sstore\n      pop\n        /* \"contracts/ExampleBoolean.sol\":143:218  function setMyBool(bool _myBool) public {... */\n      pop\n      jump\t// out\n        /* \"#utility.yul\":88:205   */\n    tag_10:\n        /* \"#utility.yul\":197:198   */\n      0x00\n        /* \"#utility.yul\":194:195   */\n      dup1\n        /* \"#utility.yul\":187:199   */\n      revert\n        /* \"#utility.yul\":334:424   */\n    tag_12:\n        /* \"#utility.yul\":368:375   */\n      0x00\n        /* \"#utility.yul\":411:416   */\n      dup2\n        /* \"#utility.yul\":404:417   */\n      iszero\n        /* \"#utility.yul\":397:418   */\n      iszero\n        /* \"#utility.yul\":386:418   */\n      swap1\n      pop\n        /* \"#utility.yul\":334:424   */\n      swap2\n      swap1\n      pop\n      jump\t// out\n        /* \"#utility.yul\":430:546   */\n    tag_13:\n        /* \"#utility.yul\":500:521   */\n      tag_21\n        /* \"#utility.yul\":515:520   */\n      dup2\n        /* \"#utility.yul\":500:521   */\n      tag_12\n      jump\t// in\n    tag_21:\n        /* \"#utility.yul\":493:498   */\n      dup2\n        /* \"#utility.yul\":490:522   */\n      eq\n        /* \"#utility.yul\":480:540   */\n      tag_22\n      jumpi\n        /* \"#utility.yul\":536:537   */\n      0x00\n        /* \"#utility.yul\":533:534   */\n      dup1\n        /* \"#utility.yul\":526:538   */\n      revert\n        /* \"#utility.yul\":480:540   */\n    tag_22:\n        /* \"#utility.yul\":430:546   */\n      pop\n      jump\t// out\n        /* \"#utility.yul\":552:685   */\n    tag_14:\n        /* \"#utility.yul\":595:600   */\n      0x00\n        /* \"#utility.yul\":633:639   */\n      dup2\n        /* \"#utility.yul\":620:640   */\n      calldataload\n        /* \"#utility.yul\":611:640   */\n      swap1\n      pop\n        /* \"#utility.yul\":649:679   */\n      tag_24\n        /* \"#utility.yul\":673:678   */\n      dup2\n        /* \"#utility.yul\":649:679   */\n      tag_13\n      jump\t// in\n    tag_24:\n        /* \"#utility.yul\":552:685   */\n      swap3\n      swap2\n      pop\n      pop\n      jump\t// out\n        /* \"#utility.yul\":691:1014   */\n    tag_6:\n        /* \"#utility.yul\":747:753   */\n      0x00\n        /* \"#utility.yul\":796:798   */\n      0x20\n        /* \"#utility.yul\":784:793   */\n      dup3\n        /* \"#utility.yul\":775:782   */\n      dup5\n        /* \"#utility.yul\":771:794   */\n      sub\n        /* \"#utility.yul\":767:799   */\n      slt\n        /* \"#utility.yul\":764:883   */\n      iszero\n      tag_26\n      jumpi\n        /* \"#utility.yul\":802:881   */\n      tag_27\n      tag_10\n      jump\t// in\n    tag_27:\n        /* \"#utility.yul\":764:883   */\n    tag_26:\n        /* \"#utility.yul\":922:923   */\n      0x00\n        /* \"#utility.yul\":947:997   */\n      tag_28\n        /* \"#utility.yul\":989:996   */\n      dup5\n        /* \"#utility.yul\":980:986   */\n      dup3\n        /* \"#utility.yul\":969:978   */\n      dup6\n        /* \"#utility.yul\":965:987   */\n      add\n        /* \"#utility.yul\":947:997   */\n      tag_14\n      jump\t// in\n    tag_28:\n        /* \"#utility.yul\":937:997   */\n      swap2\n      pop\n        /* \"#utility.yul\":893:1007   */\n      pop\n        /* \"#utility.yul\":691:1014   */\n      swap3\n      swap2\n      pop\n      pop\n      jump\t// out\n\n    auxdata: 0xa264697066735822122068b6365a110fc69a434586c313dc6652f2e1dff6c5e3c452870f9f40847f992764736f6c634300080e0033\n}\n",
				"bytecode": {
					"linkReferences": {},
					"object": "608060405234801561001057600080fd5b5060f78061001f6000396000f3fe6080604052348015600f57600080fd5b506004361060285760003560e01c8063eb1b30d914602d575b600080fd5b60436004803603810190603f91906099565b6045565b005b806000806101000a81548160ff02191690831515021790555050565b600080fd5b60008115159050919050565b6079816066565b8114608357600080fd5b50565b6000813590506093816072565b92915050565b60006020828403121560ac5760ab6061565b5b600060b8848285016086565b9150509291505056fea264697066735822122068b6365a110fc69a434586c313dc6652f2e1dff6c5e3c452870f9f40847f992764736f6c634300080e0033",
					"opcodes": "PUSH1 0x80 PUSH1 0x40 MSTORE CALLVALUE DUP1 ISZERO PUSH2 0x10 JUMPI PUSH1 0x0 DUP1 REVERT JUMPDEST POP PUSH1 0xF7 DUP1 PUSH2 0x1F PUSH1 0x0 CODECOPY PUSH1 0x0 RETURN INVALID PUSH1 0x80 PUSH1 0x40 MSTORE CALLVALUE DUP1 ISZERO PUSH1 0xF JUMPI PUSH1 0x0 DUP1 REVERT JUMPDEST POP PUSH1 0x4 CALLDATASIZE LT PUSH1 0x28 JUMPI PUSH1 0x0 CALLDATALOAD PUSH1 0xE0 SHR DUP1 PUSH4 0xEB1B30D9 EQ PUSH1 0x2D JUMPI JUMPDEST PUSH1 0x0 DUP1 REVERT JUMPDEST PUSH1 0x43 PUSH1 0x4 DUP1 CALLDATASIZE SUB DUP2 ADD SWAP1 PUSH1 0x3F SWAP2 SWAP1 PUSH1 0x99 JUMP JUMPDEST PUSH1 0x45 JUMP JUMPDEST STOP JUMPDEST DUP1 PUSH1 0x0 DUP1 PUSH2 0x100 EXP DUP2 SLOAD DUP2 PUSH1 0xFF MUL NOT AND SWAP1 DUP4 ISZERO ISZERO MUL OR SWAP1 SSTORE POP POP JUMP JUMPDEST PUSH1 0x0 DUP1 REVERT JUMPDEST PUSH1 0x0 DUP2 ISZERO ISZERO SWAP1 POP SWAP2 SWAP1 POP JUMP JUMPDEST PUSH1 0x79 DUP2 PUSH1 0x66 JUMP JUMPDEST DUP2 EQ PUSH1 0x83 JUMPI PUSH1 0x0 DUP1 REVERT JUMPDEST POP JUMP JUMPDEST PUSH1 0x0 DUP2 CALLDATALOAD SWAP1 POP PUSH1 0x93 DUP2 PUSH1 0x72 JUMP JUMPDEST SWAP3 SWAP2 POP POP JUMP JUMPDEST PUSH1 0x0 PUSH1 0x20 DUP3 DUP5 SUB SLT ISZERO PUSH1 0xAC JUMPI PUSH1 0xAB PUSH1 0x61 JUMP JUMPDEST JUMPDEST PUSH1 0x0 PUSH1 0xB8 DUP5 DUP3 DUP6 ADD PUSH1 0x86 JUMP JUMPDEST SWAP2 POP POP SWAP3 SWAP2 POP POP JUMP INVALID LOG2 PUSH5 0x6970667358 0x22 SLT KECCAK256 PUSH9 0xB6365A110FC69A4345 DUP7 0xC3 SGT 0xDC PUSH7 0x52F2E1DFF6C5E3 0xC4 MSTORE DUP8 0xF SWAP16 BLOCKHASH DUP5 PUSH32 0x992764736F6C634300080E003300000000000000000000000000000000000000 "
				},
				"gasEstimates": {
					"creation": {
						"codeDepositCost": "49400",
						"executionCost": "99",
						"totalCost": "49499"
					},
					"external": {
						"setMyBool(bool)": "24657"
					}
				},
				"methodIdentifiers": {
					"setMyBool(bool)": "eb1b30d9"
				}
			},
			"storageLayout": {
				"storage": [
					{
						"astId": 3,
						"contract": "contracts/ExampleBoolean.sol:ExampleBoolean",
						"label": "myBool",
						"offset": 0,
						"slot": "0",
						"type": "t_bool"
					}
				],
				"types": {
					"t_bool": {
						"encoding": "inplace",
						"label": "bool",
						"numberOfBytes": "1"
					}
				}
			},
			"userdoc": {
				"kind": "user",
				"methods": {},
				"version": 1
			}
		}
	}
}