{
	"contracts/BlockchainMessenger.sol": {
		"blockchainMessenger": {
			"abi": [
				{
					"inputs": [],
					"stateMutability": "nonpayable",
					"type": "constructor"
				},
				{
					"inputs": [
						{
							"internalType": "string",
							"name": "_newMessage",
							"type": "string"
						}
					],
					"name": "updatingTheMessage",
					"outputs": [],
					"stateMutability": "nonpayable",
					"type": "function"
				},
				{
					"inputs": [],
					"name": "viewMessage",
					"outputs": [
						{
							"internalType": "string",
							"name": "",
							"type": "string"
						},
						{
							"internalType": "uint256",
							"name": "",
							"type": "uint256"
						}
					],
					"stateMutability": "view",
					"type": "function"
				}
			],
			"devdoc": {
				"kind": "dev",
				"methods": {},
				"version": 1
			},
			"evm": {
				"assembly": "    /* \"contracts/BlockchainMessenger.sol\":302:1180  contract blockchainMessenger {... */\n  mstore(0x40, 0x80)\n    /* \"contracts/BlockchainMessenger.sol\":502:554  constructor () {... */\n  callvalue\n  dup1\n  iszero\n  tag_1\n  jumpi\n  0x00\n  dup1\n  revert\ntag_1:\n  pop\n    /* \"contracts/BlockchainMessenger.sol\":536:546  msg.sender */\n  caller\n    /* \"contracts/BlockchainMessenger.sol\":528:533  owner */\n  0x00\n  dup1\n    /* \"contracts/BlockchainMessenger.sol\":528:546  owner = msg.sender */\n  0x0100\n  exp\n  dup2\n  sload\n  dup2\n  0xffffffffffffffffffffffffffffffffffffffff\n  mul\n  not\n  and\n  swap1\n  dup4\n  0xffffffffffffffffffffffffffffffffffffffff\n  and\n  mul\n  or\n  swap1\n  sstore\n  pop\n    /* \"contracts/BlockchainMessenger.sol\":302:1180  contract blockchainMessenger {... */\n  dataSize(sub_0)\n  dup1\n  dataOffset(sub_0)\n  0x00\n  codecopy\n  0x00\n  return\nstop\n\nsub_0: assembly {\n        /* \"contracts/BlockchainMessenger.sol\":302:1180  contract blockchainMessenger {... */\n      mstore(0x40, 0x80)\n      callvalue\n      dup1\n      iszero\n      tag_1\n      jumpi\n      0x00\n      dup1\n      revert\n    tag_1:\n      pop\n      jumpi(tag_2, lt(calldatasize, 0x04))\n      shr(0xe0, calldataload(0x00))\n      dup1\n      0x14097efe\n      eq\n      tag_3\n      jumpi\n      dup1\n      0x191384d1\n      eq\n      tag_4\n      jumpi\n    tag_2:\n      0x00\n      dup1\n      revert\n        /* \"contracts/BlockchainMessenger.sol\":562:898  function updatingTheMessage (string memory _newMessage) public {... */\n    tag_3:\n      tag_5\n      0x04\n      dup1\n      calldatasize\n      sub\n      dup2\n      add\n      swap1\n      tag_6\n      swap2\n      swap1\n      tag_7\n      jump\t// in\n    tag_6:\n      tag_8\n      jump\t// in\n    tag_5:\n      stop\n        /* \"contracts/BlockchainMessenger.sol\":1063:1177  function viewMessage() public view returns(string memory, uint){... */\n    tag_4:\n      tag_9\n      tag_10\n      jump\t// in\n    tag_9:\n      mload(0x40)\n      tag_11\n      swap3\n      swap2\n      swap1\n      tag_12\n      jump\t// in\n    tag_11:\n      mload(0x40)\n      dup1\n      swap2\n      sub\n      swap1\n      return\n        /* \"contracts/BlockchainMessenger.sol\":562:898  function updatingTheMessage (string memory _newMessage) public {... */\n    tag_8:\n        /* \"contracts/BlockchainMessenger.sol\":804:809  owner */\n      0x00\n      dup1\n      sload\n      swap1\n      0x0100\n      exp\n      swap1\n      div\n      0xffffffffffffffffffffffffffffffffffffffff\n      and\n        /* \"contracts/BlockchainMessenger.sol\":790:809  msg.sender == owner */\n      0xffffffffffffffffffffffffffffffffffffffff\n      and\n        /* \"contracts/BlockchainMessenger.sol\":790:800  msg.sender */\n      caller\n        /* \"contracts/BlockchainMessenger.sol\":790:809  msg.sender == owner */\n      0xffffffffffffffffffffffffffffffffffffffff\n      and\n      sub\n        /* \"contracts/BlockchainMessenger.sol\":787:891  if(msg.sender == owner){... */\n      tag_14\n      jumpi\n        /* \"contracts/BlockchainMessenger.sol\":838:849  _newMessage */\n      dup1\n        /* \"contracts/BlockchainMessenger.sol\":825:835  theMessage */\n      0x02\n        /* \"contracts/BlockchainMessenger.sol\":825:849  theMessage = _newMessage */\n      swap1\n      dup2\n      tag_15\n      swap2\n      swap1\n      tag_16\n      jump\t// in\n    tag_15:\n      pop\n        /* \"contracts/BlockchainMessenger.sol\":864:877  changeCounter */\n      0x01\n      0x00\n        /* \"contracts/BlockchainMessenger.sol\":864:879  changeCounter++ */\n      dup2\n      sload\n      dup1\n      swap3\n      swap2\n      swap1\n      tag_17\n      swap1\n      tag_18\n      jump\t// in\n    tag_17:\n      swap2\n      swap1\n      pop\n      sstore\n      pop\n        /* \"contracts/BlockchainMessenger.sol\":787:891  if(msg.sender == owner){... */\n    tag_14:\n        /* \"contracts/BlockchainMessenger.sol\":562:898  function updatingTheMessage (string memory _newMessage) public {... */\n      pop\n      jump\t// out\n        /* \"contracts/BlockchainMessenger.sol\":1063:1177  function viewMessage() public view returns(string memory, uint){... */\n    tag_10:\n        /* \"contracts/BlockchainMessenger.sol\":1106:1119  string memory */\n      0x60\n        /* \"contracts/BlockchainMessenger.sol\":1121:1125  uint */\n      0x00\n        /* \"contracts/BlockchainMessenger.sol\":1144:1154  theMessage */\n      0x02\n        /* \"contracts/BlockchainMessenger.sol\":1155:1168  changeCounter */\n      sload(0x01)\n        /* \"contracts/BlockchainMessenger.sol\":1137:1169  return(theMessage,changeCounter) */\n      dup2\n      dup1\n      sload\n      tag_20\n      swap1\n      tag_21\n      jump\t// in\n    tag_20:\n      dup1\n      0x1f\n      add\n      0x20\n      dup1\n      swap2\n      div\n      mul\n      0x20\n      add\n      mload(0x40)\n      swap1\n      dup2\n      add\n      0x40\n      mstore\n      dup1\n      swap3\n      swap2\n      swap1\n      dup2\n      dup2\n      mstore\n      0x20\n      add\n      dup3\n      dup1\n      sload\n      tag_22\n      swap1\n      tag_21\n      jump\t// in\n    tag_22:\n      dup1\n      iszero\n      tag_23\n      jumpi\n      dup1\n      0x1f\n      lt\n      tag_24\n      jumpi\n      0x0100\n      dup1\n      dup4\n      sload\n      div\n      mul\n      dup4\n      mstore\n      swap2\n      0x20\n      add\n      swap2\n      jump(tag_23)\n    tag_24:\n      dup3\n      add\n      swap2\n      swap1\n      0x00\n      mstore\n      keccak256(0x00, 0x20)\n      swap1\n    tag_25:\n      dup2\n      sload\n      dup2\n      mstore\n      swap1\n      0x01\n      add\n      swap1\n      0x20\n      add\n      dup1\n      dup4\n      gt\n      tag_25\n      jumpi\n      dup3\n      swap1\n      sub\n      0x1f\n      and\n      dup3\n      add\n      swap2\n    tag_23:\n      pop\n      pop\n      pop\n      pop\n      pop\n      swap2\n      pop\n      swap2\n      pop\n      swap2\n      pop\n        /* \"contracts/BlockchainMessenger.sol\":1063:1177  function viewMessage() public view returns(string memory, uint){... */\n      swap1\n      swap2\n      jump\t// out\n        /* \"#utility.yul\":7:82   */\n    tag_26:\n        /* \"#utility.yul\":40:46   */\n      0x00\n        /* \"#utility.yul\":73:75   */\n      0x40\n        /* \"#utility.yul\":67:76   */\n      mload\n        /* \"#utility.yul\":57:76   */\n      swap1\n      pop\n        /* \"#utility.yul\":7:82   */\n      swap1\n      jump\t// out\n        /* \"#utility.yul\":88:205   */\n    tag_27:\n        /* \"#utility.yul\":197:198   */\n      0x00\n        /* \"#utility.yul\":194:195   */\n      dup1\n        /* \"#utility.yul\":187:199   */\n      revert\n        /* \"#utility.yul\":211:328   */\n    tag_28:\n        /* \"#utility.yul\":320:321   */\n      0x00\n        /* \"#utility.yul\":317:318   */\n      dup1\n        /* \"#utility.yul\":310:322   */\n      revert\n        /* \"#utility.yul\":334:451   */\n    tag_29:\n        /* \"#utility.yul\":443:444   */\n      0x00\n        /* \"#utility.yul\":440:441   */\n      dup1\n        /* \"#utility.yul\":433:445   */\n      revert\n        /* \"#utility.yul\":457:574   */\n    tag_30:\n        /* \"#utility.yul\":566:567   */\n      0x00\n        /* \"#utility.yul\":563:564   */\n      dup1\n        /* \"#utility.yul\":556:568   */\n      revert\n        /* \"#utility.yul\":580:682   */\n    tag_31:\n        /* \"#utility.yul\":621:627   */\n      0x00\n        /* \"#utility.yul\":672:674   */\n      0x1f\n        /* \"#utility.yul\":668:675   */\n      not\n        /* \"#utility.yul\":663:665   */\n      0x1f\n        /* \"#utility.yul\":656:661   */\n      dup4\n        /* \"#utility.yul\":652:666   */\n      add\n        /* \"#utility.yul\":648:676   */\n      and\n        /* \"#utility.yul\":638:676   */\n      swap1\n      pop\n        /* \"#utility.yul\":580:682   */\n      swap2\n      swap1\n      pop\n      jump\t// out\n        /* \"#utility.yul\":688:868   */\n    tag_32:\n        /* \"#utility.yul\":736:813   */\n      0x4e487b7100000000000000000000000000000000000000000000000000000000\n        /* \"#utility.yul\":733:734   */\n      0x00\n        /* \"#utility.yul\":726:814   */\n      mstore\n        /* \"#utility.yul\":833:837   */\n      0x41\n        /* \"#utility.yul\":830:831   */\n      0x04\n        /* \"#utility.yul\":823:838   */\n      mstore\n        /* \"#utility.yul\":857:861   */\n      0x24\n        /* \"#utility.yul\":854:855   */\n      0x00\n        /* \"#utility.yul\":847:862   */\n      revert\n        /* \"#utility.yul\":874:1155   */\n    tag_33:\n        /* \"#utility.yul\":957:984   */\n      tag_71\n        /* \"#utility.yul\":979:983   */\n      dup3\n        /* \"#utility.yul\":957:984   */\n      tag_31\n      jump\t// in\n    tag_71:\n        /* \"#utility.yul\":949:955   */\n      dup2\n        /* \"#utility.yul\":945:985   */\n      add\n        /* \"#utility.yul\":1087:1093   */\n      dup2\n        /* \"#utility.yul\":1075:1085   */\n      dup2\n        /* \"#utility.yul\":1072:1094   */\n      lt\n        /* \"#utility.yul\":1051:1069   */\n      0xffffffffffffffff\n        /* \"#utility.yul\":1039:1049   */\n      dup3\n        /* \"#utility.yul\":1036:1070   */\n      gt\n        /* \"#utility.yul\":1033:1095   */\n      or\n        /* \"#utility.yul\":1030:1118   */\n      iszero\n      tag_72\n      jumpi\n        /* \"#utility.yul\":1098:1116   */\n      tag_73\n      tag_32\n      jump\t// in\n    tag_73:\n        /* \"#utility.yul\":1030:1118   */\n    tag_72:\n        /* \"#utility.yul\":1138:1148   */\n      dup1\n        /* \"#utility.yul\":1134:1136   */\n      0x40\n        /* \"#utility.yul\":1127:1149   */\n      mstore\n        /* \"#utility.yul\":917:1155   */\n      pop\n        /* \"#utility.yul\":874:1155   */\n      pop\n      pop\n      jump\t// out\n        /* \"#utility.yul\":1161:1290   */\n    tag_34:\n        /* \"#utility.yul\":1195:1201   */\n      0x00\n        /* \"#utility.yul\":1222:1242   */\n      tag_75\n      tag_26\n      jump\t// in\n    tag_75:\n        /* \"#utility.yul\":1212:1242   */\n      swap1\n      pop\n        /* \"#utility.yul\":1251:1284   */\n      tag_76\n        /* \"#utility.yul\":1279:1283   */\n      dup3\n        /* \"#utility.yul\":1271:1277   */\n      dup3\n        /* \"#utility.yul\":1251:1284   */\n      tag_33\n      jump\t// in\n    tag_76:\n        /* \"#utility.yul\":1161:1290   */\n      swap2\n      swap1\n      pop\n      jump\t// out\n        /* \"#utility.yul\":1296:1604   */\n    tag_35:\n        /* \"#utility.yul\":1358:1362   */\n      0x00\n        /* \"#utility.yul\":1448:1466   */\n      0xffffffffffffffff\n        /* \"#utility.yul\":1440:1446   */\n      dup3\n        /* \"#utility.yul\":1437:1467   */\n      gt\n        /* \"#utility.yul\":1434:1490   */\n      iszero\n      tag_78\n      jumpi\n        /* \"#utility.yul\":1470:1488   */\n      tag_79\n      tag_32\n      jump\t// in\n    tag_79:\n        /* \"#utility.yul\":1434:1490   */\n    tag_78:\n        /* \"#utility.yul\":1508:1537   */\n      tag_80\n        /* \"#utility.yul\":1530:1536   */\n      dup3\n        /* \"#utility.yul\":1508:1537   */\n      tag_31\n      jump\t// in\n    tag_80:\n        /* \"#utility.yul\":1500:1537   */\n      swap1\n      pop\n        /* \"#utility.yul\":1592:1596   */\n      0x20\n        /* \"#utility.yul\":1586:1590   */\n      dup2\n        /* \"#utility.yul\":1582:1597   */\n      add\n        /* \"#utility.yul\":1574:1597   */\n      swap1\n      pop\n        /* \"#utility.yul\":1296:1604   */\n      swap2\n      swap1\n      pop\n      jump\t// out\n        /* \"#utility.yul\":1610:1764   */\n    tag_36:\n        /* \"#utility.yul\":1694:1700   */\n      dup3\n        /* \"#utility.yul\":1689:1692   */\n      dup2\n        /* \"#utility.yul\":1684:1687   */\n      dup4\n        /* \"#utility.yul\":1671:1701   */\n      calldatacopy\n        /* \"#utility.yul\":1756:1757   */\n      0x00\n        /* \"#utility.yul\":1747:1753   */\n      dup4\n        /* \"#utility.yul\":1742:1745   */\n      dup4\n        /* \"#utility.yul\":1738:1754   */\n      add\n        /* \"#utility.yul\":1731:1758   */\n      mstore\n        /* \"#utility.yul\":1610:1764   */\n      pop\n      pop\n      pop\n      jump\t// out\n        /* \"#utility.yul\":1770:2182   */\n    tag_37:\n        /* \"#utility.yul\":1848:1853   */\n      0x00\n        /* \"#utility.yul\":1873:1939   */\n      tag_83\n        /* \"#utility.yul\":1889:1938   */\n      tag_84\n        /* \"#utility.yul\":1931:1937   */\n      dup5\n        /* \"#utility.yul\":1889:1938   */\n      tag_35\n      jump\t// in\n    tag_84:\n        /* \"#utility.yul\":1873:1939   */\n      tag_34\n      jump\t// in\n    tag_83:\n        /* \"#utility.yul\":1864:1939   */\n      swap1\n      pop\n        /* \"#utility.yul\":1962:1968   */\n      dup3\n        /* \"#utility.yul\":1955:1960   */\n      dup2\n        /* \"#utility.yul\":1948:1969   */\n      mstore\n        /* \"#utility.yul\":2000:2004   */\n      0x20\n        /* \"#utility.yul\":1993:1998   */\n      dup2\n        /* \"#utility.yul\":1989:2005   */\n      add\n        /* \"#utility.yul\":2038:2041   */\n      dup5\n        /* \"#utility.yul\":2029:2035   */\n      dup5\n        /* \"#utility.yul\":2024:2027   */\n      dup5\n        /* \"#utility.yul\":2020:2036   */\n      add\n        /* \"#utility.yul\":2017:2042   */\n      gt\n        /* \"#utility.yul\":2014:2126   */\n      iszero\n      tag_85\n      jumpi\n        /* \"#utility.yul\":2045:2124   */\n      tag_86\n      tag_30\n      jump\t// in\n    tag_86:\n        /* \"#utility.yul\":2014:2126   */\n    tag_85:\n        /* \"#utility.yul\":2135:2176   */\n      tag_87\n        /* \"#utility.yul\":2169:2175   */\n      dup5\n        /* \"#utility.yul\":2164:2167   */\n      dup3\n        /* \"#utility.yul\":2159:2162   */\n      dup6\n        /* \"#utility.yul\":2135:2176   */\n      tag_36\n      jump\t// in\n    tag_87:\n        /* \"#utility.yul\":1854:2182   */\n      pop\n        /* \"#utility.yul\":1770:2182   */\n      swap4\n      swap3\n      pop\n      pop\n      pop\n      jump\t// out\n        /* \"#utility.yul\":2202:2542   */\n    tag_38:\n        /* \"#utility.yul\":2258:2263   */\n      0x00\n        /* \"#utility.yul\":2307:2310   */\n      dup3\n        /* \"#utility.yul\":2300:2304   */\n      0x1f\n        /* \"#utility.yul\":2292:2298   */\n      dup4\n        /* \"#utility.yul\":2288:2305   */\n      add\n        /* \"#utility.yul\":2284:2311   */\n      slt\n        /* \"#utility.yul\":2274:2396   */\n      tag_89\n      jumpi\n        /* \"#utility.yul\":2315:2394   */\n      tag_90\n      tag_29\n      jump\t// in\n    tag_90:\n        /* \"#utility.yul\":2274:2396   */\n    tag_89:\n        /* \"#utility.yul\":2432:2438   */\n      dup2\n        /* \"#utility.yul\":2419:2439   */\n      calldataload\n        /* \"#utility.yul\":2457:2536   */\n      tag_91\n        /* \"#utility.yul\":2532:2535   */\n      dup5\n        /* \"#utility.yul\":2524:2530   */\n      dup3\n        /* \"#utility.yul\":2517:2521   */\n      0x20\n        /* \"#utility.yul\":2509:2515   */\n      dup7\n        /* \"#utility.yul\":2505:2522   */\n      add\n        /* \"#utility.yul\":2457:2536   */\n      tag_37\n      jump\t// in\n    tag_91:\n        /* \"#utility.yul\":2448:2536   */\n      swap2\n      pop\n        /* \"#utility.yul\":2264:2542   */\n      pop\n        /* \"#utility.yul\":2202:2542   */\n      swap3\n      swap2\n      pop\n      pop\n      jump\t// out\n        /* \"#utility.yul\":2548:3057   */\n    tag_7:\n        /* \"#utility.yul\":2617:2623   */\n      0x00\n        /* \"#utility.yul\":2666:2668   */\n      0x20\n        /* \"#utility.yul\":2654:2663   */\n      dup3\n        /* \"#utility.yul\":2645:2652   */\n      dup5\n        /* \"#utility.yul\":2641:2664   */\n      sub\n        /* \"#utility.yul\":2637:2669   */\n      slt\n        /* \"#utility.yul\":2634:2753   */\n      iszero\n      tag_93\n      jumpi\n        /* \"#utility.yul\":2672:2751   */\n      tag_94\n      tag_27\n      jump\t// in\n    tag_94:\n        /* \"#utility.yul\":2634:2753   */\n    tag_93:\n        /* \"#utility.yul\":2820:2821   */\n      0x00\n        /* \"#utility.yul\":2809:2818   */\n      dup3\n        /* \"#utility.yul\":2805:2822   */\n      add\n        /* \"#utility.yul\":2792:2823   */\n      calldataload\n        /* \"#utility.yul\":2850:2868   */\n      0xffffffffffffffff\n        /* \"#utility.yul\":2842:2848   */\n      dup2\n        /* \"#utility.yul\":2839:2869   */\n      gt\n        /* \"#utility.yul\":2836:2953   */\n      iszero\n      tag_95\n      jumpi\n        /* \"#utility.yul\":2872:2951   */\n      tag_96\n      tag_28\n      jump\t// in\n    tag_96:\n        /* \"#utility.yul\":2836:2953   */\n    tag_95:\n        /* \"#utility.yul\":2977:3040   */\n      tag_97\n        /* \"#utility.yul\":3032:3039   */\n      dup5\n        /* \"#utility.yul\":3023:3029   */\n      dup3\n        /* \"#utility.yul\":3012:3021   */\n      dup6\n        /* \"#utility.yul\":3008:3030   */\n      add\n        /* \"#utility.yul\":2977:3040   */\n      tag_38\n      jump\t// in\n    tag_97:\n        /* \"#utility.yul\":2967:3040   */\n      swap2\n      pop\n        /* \"#utility.yul\":2763:3050   */\n      pop\n        /* \"#utility.yul\":2548:3057   */\n      swap3\n      swap2\n      pop\n      pop\n      jump\t// out\n        /* \"#utility.yul\":3063:3162   */\n    tag_39:\n        /* \"#utility.yul\":3115:3121   */\n      0x00\n        /* \"#utility.yul\":3149:3154   */\n      dup2\n        /* \"#utility.yul\":3143:3155   */\n      mload\n        /* \"#utility.yul\":3133:3155   */\n      swap1\n      pop\n        /* \"#utility.yul\":3063:3162   */\n      swap2\n      swap1\n      pop\n      jump\t// out\n        /* \"#utility.yul\":3168:3337   */\n    tag_40:\n        /* \"#utility.yul\":3252:3263   */\n      0x00\n        /* \"#utility.yul\":3286:3292   */\n      dup3\n        /* \"#utility.yul\":3281:3284   */\n      dup3\n        /* \"#utility.yul\":3274:3293   */\n      mstore\n        /* \"#utility.yul\":3326:3330   */\n      0x20\n        /* \"#utility.yul\":3321:3324   */\n      dup3\n        /* \"#utility.yul\":3317:3331   */\n      add\n        /* \"#utility.yul\":3302:3331   */\n      swap1\n      pop\n        /* \"#utility.yul\":3168:3337   */\n      swap3\n      swap2\n      pop\n      pop\n      jump\t// out\n        /* \"#utility.yul\":3343:3650   */\n    tag_41:\n        /* \"#utility.yul\":3411:3412   */\n      0x00\n        /* \"#utility.yul\":3421:3534   */\n    tag_101:\n        /* \"#utility.yul\":3435:3441   */\n      dup4\n        /* \"#utility.yul\":3432:3433   */\n      dup2\n        /* \"#utility.yul\":3429:3442   */\n      lt\n        /* \"#utility.yul\":3421:3534   */\n      iszero\n      tag_103\n      jumpi\n        /* \"#utility.yul\":3520:3521   */\n      dup1\n        /* \"#utility.yul\":3515:3518   */\n      dup3\n        /* \"#utility.yul\":3511:3522   */\n      add\n        /* \"#utility.yul\":3505:3523   */\n      mload\n        /* \"#utility.yul\":3501:3502   */\n      dup2\n        /* \"#utility.yul\":3496:3499   */\n      dup5\n        /* \"#utility.yul\":3492:3503   */\n      add\n        /* \"#utility.yul\":3485:3524   */\n      mstore\n        /* \"#utility.yul\":3457:3459   */\n      0x20\n        /* \"#utility.yul\":3454:3455   */\n      dup2\n        /* \"#utility.yul\":3450:3460   */\n      add\n        /* \"#utility.yul\":3445:3460   */\n      swap1\n      pop\n        /* \"#utility.yul\":3421:3534   */\n      jump(tag_101)\n    tag_103:\n        /* \"#utility.yul\":3552:3558   */\n      dup4\n        /* \"#utility.yul\":3549:3550   */\n      dup2\n        /* \"#utility.yul\":3546:3559   */\n      gt\n        /* \"#utility.yul\":3543:3644   */\n      iszero\n      tag_104\n      jumpi\n        /* \"#utility.yul\":3632:3633   */\n      0x00\n        /* \"#utility.yul\":3623:3629   */\n      dup5\n        /* \"#utility.yul\":3618:3621   */\n      dup5\n        /* \"#utility.yul\":3614:3630   */\n      add\n        /* \"#utility.yul\":3607:3634   */\n      mstore\n        /* \"#utility.yul\":3543:3644   */\n    tag_104:\n        /* \"#utility.yul\":3392:3650   */\n      pop\n        /* \"#utility.yul\":3343:3650   */\n      pop\n      pop\n      pop\n      jump\t// out\n        /* \"#utility.yul\":3656:4020   */\n    tag_42:\n        /* \"#utility.yul\":3744:3747   */\n      0x00\n        /* \"#utility.yul\":3772:3811   */\n      tag_106\n        /* \"#utility.yul\":3805:3810   */\n      dup3\n        /* \"#utility.yul\":3772:3811   */\n      tag_39\n      jump\t// in\n    tag_106:\n        /* \"#utility.yul\":3827:3898   */\n      tag_107\n        /* \"#utility.yul\":3891:3897   */\n      dup2\n        /* \"#utility.yul\":3886:3889   */\n      dup6\n        /* \"#utility.yul\":3827:3898   */\n      tag_40\n      jump\t// in\n    tag_107:\n        /* \"#utility.yul\":3820:3898   */\n      swap4\n      pop\n        /* \"#utility.yul\":3907:3959   */\n      tag_108\n        /* \"#utility.yul\":3952:3958   */\n      dup2\n        /* \"#utility.yul\":3947:3950   */\n      dup6\n        /* \"#utility.yul\":3940:3944   */\n      0x20\n        /* \"#utility.yul\":3933:3938   */\n      dup7\n        /* \"#utility.yul\":3929:3945   */\n      add\n        /* \"#utility.yul\":3907:3959   */\n      tag_41\n      jump\t// in\n    tag_108:\n        /* \"#utility.yul\":3984:4013   */\n      tag_109\n        /* \"#utility.yul\":4006:4012   */\n      dup2\n        /* \"#utility.yul\":3984:4013   */\n      tag_31\n      jump\t// in\n    tag_109:\n        /* \"#utility.yul\":3979:3982   */\n      dup5\n        /* \"#utility.yul\":3975:4014   */\n      add\n        /* \"#utility.yul\":3968:4014   */\n      swap2\n      pop\n        /* \"#utility.yul\":3748:4020   */\n      pop\n        /* \"#utility.yul\":3656:4020   */\n      swap3\n      swap2\n      pop\n      pop\n      jump\t// out\n        /* \"#utility.yul\":4026:4103   */\n    tag_43:\n        /* \"#utility.yul\":4063:4070   */\n      0x00\n        /* \"#utility.yul\":4092:4097   */\n      dup2\n        /* \"#utility.yul\":4081:4097   */\n      swap1\n      pop\n        /* \"#utility.yul\":4026:4103   */\n      swap2\n      swap1\n      pop\n      jump\t// out\n        /* \"#utility.yul\":4109:4227   */\n    tag_44:\n        /* \"#utility.yul\":4196:4220   */\n      tag_112\n        /* \"#utility.yul\":4214:4219   */\n      dup2\n        /* \"#utility.yul\":4196:4220   */\n      tag_43\n      jump\t// in\n    tag_112:\n        /* \"#utility.yul\":4191:4194   */\n      dup3\n        /* \"#utility.yul\":4184:4221   */\n      mstore\n        /* \"#utility.yul\":4109:4227   */\n      pop\n      pop\n      jump\t// out\n        /* \"#utility.yul\":4233:4656   */\n    tag_12:\n        /* \"#utility.yul\":4374:4378   */\n      0x00\n        /* \"#utility.yul\":4412:4414   */\n      0x40\n        /* \"#utility.yul\":4401:4410   */\n      dup3\n        /* \"#utility.yul\":4397:4415   */\n      add\n        /* \"#utility.yul\":4389:4415   */\n      swap1\n      pop\n        /* \"#utility.yul\":4461:4470   */\n      dup2\n        /* \"#utility.yul\":4455:4459   */\n      dup2\n        /* \"#utility.yul\":4451:4471   */\n      sub\n        /* \"#utility.yul\":4447:4448   */\n      0x00\n        /* \"#utility.yul\":4436:4445   */\n      dup4\n        /* \"#utility.yul\":4432:4449   */\n      add\n        /* \"#utility.yul\":4425:4472   */\n      mstore\n        /* \"#utility.yul\":4489:4567   */\n      tag_114\n        /* \"#utility.yul\":4562:4566   */\n      dup2\n        /* \"#utility.yul\":4553:4559   */\n      dup6\n        /* \"#utility.yul\":4489:4567   */\n      tag_42\n      jump\t// in\n    tag_114:\n        /* \"#utility.yul\":4481:4567   */\n      swap1\n      pop\n        /* \"#utility.yul\":4577:4649   */\n      tag_115\n        /* \"#utility.yul\":4645:4647   */\n      0x20\n        /* \"#utility.yul\":4634:4643   */\n      dup4\n        /* \"#utility.yul\":4630:4648   */\n      add\n        /* \"#utility.yul\":4621:4627   */\n      dup5\n        /* \"#utility.yul\":4577:4649   */\n      tag_44\n      jump\t// in\n    tag_115:\n        /* \"#utility.yul\":4233:4656   */\n      swap4\n      swap3\n      pop\n      pop\n      pop\n      jump\t// out\n        /* \"#utility.yul\":4662:4842   */\n    tag_45:\n        /* \"#utility.yul\":4710:4787   */\n      0x4e487b7100000000000000000000000000000000000000000000000000000000\n        /* \"#utility.yul\":4707:4708   */\n      0x00\n        /* \"#utility.yul\":4700:4788   */\n      mstore\n        /* \"#utility.yul\":4807:4811   */\n      0x22\n        /* \"#utility.yul\":4804:4805   */\n      0x04\n        /* \"#utility.yul\":4797:4812   */\n      mstore\n        /* \"#utility.yul\":4831:4835   */\n      0x24\n        /* \"#utility.yul\":4828:4829   */\n      0x00\n        /* \"#utility.yul\":4821:4836   */\n      revert\n        /* \"#utility.yul\":4848:5168   */\n    tag_21:\n        /* \"#utility.yul\":4892:4898   */\n      0x00\n        /* \"#utility.yul\":4929:4930   */\n      0x02\n        /* \"#utility.yul\":4923:4927   */\n      dup3\n        /* \"#utility.yul\":4919:4931   */\n      div\n        /* \"#utility.yul\":4909:4931   */\n      swap1\n      pop\n        /* \"#utility.yul\":4976:4977   */\n      0x01\n        /* \"#utility.yul\":4970:4974   */\n      dup3\n        /* \"#utility.yul\":4966:4978   */\n      and\n        /* \"#utility.yul\":4997:5015   */\n      dup1\n        /* \"#utility.yul\":4987:5068   */\n      tag_118\n      jumpi\n        /* \"#utility.yul\":5053:5057   */\n      0x7f\n        /* \"#utility.yul\":5045:5051   */\n      dup3\n        /* \"#utility.yul\":5041:5058   */\n      and\n        /* \"#utility.yul\":5031:5058   */\n      swap2\n      pop\n        /* \"#utility.yul\":4987:5068   */\n    tag_118:\n        /* \"#utility.yul\":5115:5117   */\n      0x20\n        /* \"#utility.yul\":5107:5113   */\n      dup3\n        /* \"#utility.yul\":5104:5118   */\n      lt\n        /* \"#utility.yul\":5084:5102   */\n      dup2\n        /* \"#utility.yul\":5081:5119   */\n      sub\n        /* \"#utility.yul\":5078:5162   */\n      tag_119\n      jumpi\n        /* \"#utility.yul\":5134:5152   */\n      tag_120\n      tag_45\n      jump\t// in\n    tag_120:\n        /* \"#utility.yul\":5078:5162   */\n    tag_119:\n        /* \"#utility.yul\":4899:5168   */\n      pop\n        /* \"#utility.yul\":4848:5168   */\n      swap2\n      swap1\n      pop\n      jump\t// out\n        /* \"#utility.yul\":5174:5315   */\n    tag_46:\n        /* \"#utility.yul\":5223:5227   */\n      0x00\n        /* \"#utility.yul\":5246:5249   */\n      dup2\n        /* \"#utility.yul\":5238:5249   */\n      swap1\n      pop\n        /* \"#utility.yul\":5269:5272   */\n      dup2\n        /* \"#utility.yul\":5266:5267   */\n      0x00\n        /* \"#utility.yul\":5259:5273   */\n      mstore\n        /* \"#utility.yul\":5303:5307   */\n      0x20\n        /* \"#utility.yul\":5300:5301   */\n      0x00\n        /* \"#utility.yul\":5290:5308   */\n      keccak256\n        /* \"#utility.yul\":5282:5308   */\n      swap1\n      pop\n        /* \"#utility.yul\":5174:5315   */\n      swap2\n      swap1\n      pop\n      jump\t// out\n        /* \"#utility.yul\":5321:5414   */\n    tag_47:\n        /* \"#utility.yul\":5358:5364   */\n      0x00\n        /* \"#utility.yul\":5405:5407   */\n      0x20\n        /* \"#utility.yul\":5400:5402   */\n      0x1f\n        /* \"#utility.yul\":5393:5398   */\n      dup4\n        /* \"#utility.yul\":5389:5403   */\n      add\n        /* \"#utility.yul\":5385:5408   */\n      div\n        /* \"#utility.yul\":5375:5408   */\n      swap1\n      pop\n        /* \"#utility.yul\":5321:5414   */\n      swap2\n      swap1\n      pop\n      jump\t// out\n        /* \"#utility.yul\":5420:5527   */\n    tag_48:\n        /* \"#utility.yul\":5464:5472   */\n      0x00\n        /* \"#utility.yul\":5514:5519   */\n      dup3\n        /* \"#utility.yul\":5508:5512   */\n      dup3\n        /* \"#utility.yul\":5504:5520   */\n      shl\n        /* \"#utility.yul\":5483:5520   */\n      swap1\n      pop\n        /* \"#utility.yul\":5420:5527   */\n      swap3\n      swap2\n      pop\n      pop\n      jump\t// out\n        /* \"#utility.yul\":5533:5926   */\n    tag_49:\n        /* \"#utility.yul\":5602:5608   */\n      0x00\n        /* \"#utility.yul\":5652:5653   */\n      0x08\n        /* \"#utility.yul\":5640:5650   */\n      dup4\n        /* \"#utility.yul\":5636:5654   */\n      mul\n        /* \"#utility.yul\":5675:5772   */\n      tag_125\n        /* \"#utility.yul\":5705:5771   */\n      0xffffffffffffffffffffffffffffffffffffffffffffffffffffffffffffffff\n        /* \"#utility.yul\":5694:5703   */\n      dup3\n        /* \"#utility.yul\":5675:5772   */\n      tag_48\n      jump\t// in\n    tag_125:\n        /* \"#utility.yul\":5793:5832   */\n      tag_126\n        /* \"#utility.yul\":5823:5831   */\n      dup7\n        /* \"#utility.yul\":5812:5821   */\n      dup4\n        /* \"#utility.yul\":5793:5832   */\n      tag_48\n      jump\t// in\n    tag_126:\n        /* \"#utility.yul\":5781:5832   */\n      swap6\n      pop\n        /* \"#utility.yul\":5865:5869   */\n      dup1\n        /* \"#utility.yul\":5861:5870   */\n      not\n        /* \"#utility.yul\":5854:5859   */\n      dup5\n        /* \"#utility.yul\":5850:5871   */\n      and\n        /* \"#utility.yul\":5841:5871   */\n      swap4\n      pop\n        /* \"#utility.yul\":5914:5918   */\n      dup1\n        /* \"#utility.yul\":5904:5912   */\n      dup7\n        /* \"#utility.yul\":5900:5919   */\n      and\n        /* \"#utility.yul\":5893:5898   */\n      dup5\n        /* \"#utility.yul\":5890:5920   */\n      or\n        /* \"#utility.yul\":5880:5920   */\n      swap3\n      pop\n        /* \"#utility.yul\":5609:5926   */\n      pop\n      pop\n        /* \"#utility.yul\":5533:5926   */\n      swap4\n      swap3\n      pop\n      pop\n      pop\n      jump\t// out\n        /* \"#utility.yul\":5932:5992   */\n    tag_50:\n        /* \"#utility.yul\":5960:5963   */\n      0x00\n        /* \"#utility.yul\":5981:5986   */\n      dup2\n        /* \"#utility.yul\":5974:5986   */\n      swap1\n      pop\n        /* \"#utility.yul\":5932:5992   */\n      swap2\n      swap1\n      pop\n      jump\t// out\n        /* \"#utility.yul\":5998:6140   */\n    tag_51:\n        /* \"#utility.yul\":6048:6057   */\n      0x00\n        /* \"#utility.yul\":6081:6134   */\n      tag_129\n        /* \"#utility.yul\":6099:6133   */\n      tag_130\n        /* \"#utility.yul\":6108:6132   */\n      tag_131\n        /* \"#utility.yul\":6126:6131   */\n      dup5\n        /* \"#utility.yul\":6108:6132   */\n      tag_43\n      jump\t// in\n    tag_131:\n        /* \"#utility.yul\":6099:6133   */\n      tag_50\n      jump\t// in\n    tag_130:\n        /* \"#utility.yul\":6081:6134   */\n      tag_43\n      jump\t// in\n    tag_129:\n        /* \"#utility.yul\":6068:6134   */\n      swap1\n      pop\n        /* \"#utility.yul\":5998:6140   */\n      swap2\n      swap1\n      pop\n      jump\t// out\n        /* \"#utility.yul\":6146:6221   */\n    tag_52:\n        /* \"#utility.yul\":6189:6192   */\n      0x00\n        /* \"#utility.yul\":6210:6215   */\n      dup2\n        /* \"#utility.yul\":6203:6215   */\n      swap1\n      pop\n        /* \"#utility.yul\":6146:6221   */\n      swap2\n      swap1\n      pop\n      jump\t// out\n        /* \"#utility.yul\":6227:6496   */\n    tag_53:\n        /* \"#utility.yul\":6337:6376   */\n      tag_134\n        /* \"#utility.yul\":6368:6375   */\n      dup4\n        /* \"#utility.yul\":6337:6376   */\n      tag_51\n      jump\t// in\n    tag_134:\n        /* \"#utility.yul\":6398:6489   */\n      tag_135\n        /* \"#utility.yul\":6447:6488   */\n      tag_136\n        /* \"#utility.yul\":6471:6487   */\n      dup3\n        /* \"#utility.yul\":6447:6488   */\n      tag_52\n      jump\t// in\n    tag_136:\n        /* \"#utility.yul\":6439:6445   */\n      dup5\n        /* \"#utility.yul\":6432:6436   */\n      dup5\n        /* \"#utility.yul\":6426:6437   */\n      sload\n        /* \"#utility.yul\":6398:6489   */\n      tag_49\n      jump\t// in\n    tag_135:\n        /* \"#utility.yul\":6392:6396   */\n      dup3\n        /* \"#utility.yul\":6385:6490   */\n      sstore\n        /* \"#utility.yul\":6303:6496   */\n      pop\n        /* \"#utility.yul\":6227:6496   */\n      pop\n      pop\n      pop\n      jump\t// out\n        /* \"#utility.yul\":6502:6575   */\n    tag_54:\n        /* \"#utility.yul\":6547:6550   */\n      0x00\n        /* \"#utility.yul\":6502:6575   */\n      swap1\n      jump\t// out\n        /* \"#utility.yul\":6581:6770   */\n    tag_55:\n        /* \"#utility.yul\":6658:6690   */\n      tag_139\n      tag_54\n      jump\t// in\n    tag_139:\n        /* \"#utility.yul\":6699:6764   */\n      tag_140\n        /* \"#utility.yul\":6757:6763   */\n      dup2\n        /* \"#utility.yul\":6749:6755   */\n      dup5\n        /* \"#utility.yul\":6743:6747   */\n      dup5\n        /* \"#utility.yul\":6699:6764   */\n      tag_53\n      jump\t// in\n    tag_140:\n        /* \"#utility.yul\":6634:6770   */\n      pop\n        /* \"#utility.yul\":6581:6770   */\n      pop\n      pop\n      jump\t// out\n        /* \"#utility.yul\":6776:6962   */\n    tag_56:\n        /* \"#utility.yul\":6836:6956   */\n    tag_142:\n        /* \"#utility.yul\":6853:6856   */\n      dup2\n        /* \"#utility.yul\":6846:6851   */\n      dup2\n        /* \"#utility.yul\":6843:6857   */\n      lt\n        /* \"#utility.yul\":6836:6956   */\n      iszero\n      tag_144\n      jumpi\n        /* \"#utility.yul\":6907:6946   */\n      tag_145\n        /* \"#utility.yul\":6944:6945   */\n      0x00\n        /* \"#utility.yul\":6937:6942   */\n      dup3\n        /* \"#utility.yul\":6907:6946   */\n      tag_55\n      jump\t// in\n    tag_145:\n        /* \"#utility.yul\":6880:6881   */\n      0x01\n        /* \"#utility.yul\":6873:6878   */\n      dup2\n        /* \"#utility.yul\":6869:6882   */\n      add\n        /* \"#utility.yul\":6860:6882   */\n      swap1\n      pop\n        /* \"#utility.yul\":6836:6956   */\n      jump(tag_142)\n    tag_144:\n        /* \"#utility.yul\":6776:6962   */\n      pop\n      pop\n      jump\t// out\n        /* \"#utility.yul\":6968:7511   */\n    tag_57:\n        /* \"#utility.yul\":7069:7071   */\n      0x1f\n        /* \"#utility.yul\":7064:7067   */\n      dup3\n        /* \"#utility.yul\":7061:7072   */\n      gt\n        /* \"#utility.yul\":7058:7504   */\n      iszero\n      tag_147\n      jumpi\n        /* \"#utility.yul\":7103:7141   */\n      tag_148\n        /* \"#utility.yul\":7135:7140   */\n      dup2\n        /* \"#utility.yul\":7103:7141   */\n      tag_46\n      jump\t// in\n    tag_148:\n        /* \"#utility.yul\":7187:7216   */\n      tag_149\n        /* \"#utility.yul\":7205:7215   */\n      dup5\n        /* \"#utility.yul\":7187:7216   */\n      tag_47\n      jump\t// in\n    tag_149:\n        /* \"#utility.yul\":7177:7185   */\n      dup2\n        /* \"#utility.yul\":7173:7217   */\n      add\n        /* \"#utility.yul\":7370:7372   */\n      0x20\n        /* \"#utility.yul\":7358:7368   */\n      dup6\n        /* \"#utility.yul\":7355:7373   */\n      lt\n        /* \"#utility.yul\":7352:7401   */\n      iszero\n      tag_150\n      jumpi\n        /* \"#utility.yul\":7391:7399   */\n      dup2\n        /* \"#utility.yul\":7376:7399   */\n      swap1\n      pop\n        /* \"#utility.yul\":7352:7401   */\n    tag_150:\n        /* \"#utility.yul\":7414:7494   */\n      tag_151\n        /* \"#utility.yul\":7470:7492   */\n      tag_152\n        /* \"#utility.yul\":7488:7491   */\n      dup6\n        /* \"#utility.yul\":7470:7492   */\n      tag_47\n      jump\t// in\n    tag_152:\n        /* \"#utility.yul\":7460:7468   */\n      dup4\n        /* \"#utility.yul\":7456:7493   */\n      add\n        /* \"#utility.yul\":7443:7454   */\n      dup3\n        /* \"#utility.yul\":7414:7494   */\n      tag_56\n      jump\t// in\n    tag_151:\n        /* \"#utility.yul\":7073:7504   */\n      pop\n      pop\n        /* \"#utility.yul\":7058:7504   */\n    tag_147:\n        /* \"#utility.yul\":6968:7511   */\n      pop\n      pop\n      pop\n      jump\t// out\n        /* \"#utility.yul\":7517:7634   */\n    tag_58:\n        /* \"#utility.yul\":7571:7579   */\n      0x00\n        /* \"#utility.yul\":7621:7626   */\n      dup3\n        /* \"#utility.yul\":7615:7619   */\n      dup3\n        /* \"#utility.yul\":7611:7627   */\n      shr\n        /* \"#utility.yul\":7590:7627   */\n      swap1\n      pop\n        /* \"#utility.yul\":7517:7634   */\n      swap3\n      swap2\n      pop\n      pop\n      jump\t// out\n        /* \"#utility.yul\":7640:7809   */\n    tag_59:\n        /* \"#utility.yul\":7684:7690   */\n      0x00\n        /* \"#utility.yul\":7717:7768   */\n      tag_155\n        /* \"#utility.yul\":7765:7766   */\n      0x00\n        /* \"#utility.yul\":7761:7767   */\n      not\n        /* \"#utility.yul\":7753:7758   */\n      dup5\n        /* \"#utility.yul\":7750:7751   */\n      0x08\n        /* \"#utility.yul\":7746:7759   */\n      mul\n        /* \"#utility.yul\":7717:7768   */\n      tag_58\n      jump\t// in\n    tag_155:\n        /* \"#utility.yul\":7713:7769   */\n      not\n        /* \"#utility.yul\":7798:7802   */\n      dup1\n        /* \"#utility.yul\":7792:7796   */\n      dup4\n        /* \"#utility.yul\":7788:7803   */\n      and\n        /* \"#utility.yul\":7778:7803   */\n      swap2\n      pop\n        /* \"#utility.yul\":7691:7809   */\n      pop\n        /* \"#utility.yul\":7640:7809   */\n      swap3\n      swap2\n      pop\n      pop\n      jump\t// out\n        /* \"#utility.yul\":7814:8109   */\n    tag_60:\n        /* \"#utility.yul\":7890:7894   */\n      0x00\n        /* \"#utility.yul\":8036:8065   */\n      tag_157\n        /* \"#utility.yul\":8061:8064   */\n      dup4\n        /* \"#utility.yul\":8055:8059   */\n      dup4\n        /* \"#utility.yul\":8036:8065   */\n      tag_59\n      jump\t// in\n    tag_157:\n        /* \"#utility.yul\":8028:8065   */\n      swap2\n      pop\n        /* \"#utility.yul\":8098:8101   */\n      dup3\n        /* \"#utility.yul\":8095:8096   */\n      0x02\n        /* \"#utility.yul\":8091:8102   */\n      mul\n        /* \"#utility.yul\":8085:8089   */\n      dup3\n        /* \"#utility.yul\":8082:8103   */\n      or\n        /* \"#utility.yul\":8074:8103   */\n      swap1\n      pop\n        /* \"#utility.yul\":7814:8109   */\n      swap3\n      swap2\n      pop\n      pop\n      jump\t// out\n        /* \"#utility.yul\":8114:9509   */\n    tag_16:\n        /* \"#utility.yul\":8231:8268   */\n      tag_159\n        /* \"#utility.yul\":8264:8267   */\n      dup3\n        /* \"#utility.yul\":8231:8268   */\n      tag_39\n      jump\t// in\n    tag_159:\n        /* \"#utility.yul\":8333:8351   */\n      0xffffffffffffffff\n        /* \"#utility.yul\":8325:8331   */\n      dup2\n        /* \"#utility.yul\":8322:8352   */\n      gt\n        /* \"#utility.yul\":8319:8375   */\n      iszero\n      tag_160\n      jumpi\n        /* \"#utility.yul\":8355:8373   */\n      tag_161\n      tag_32\n      jump\t// in\n    tag_161:\n        /* \"#utility.yul\":8319:8375   */\n    tag_160:\n        /* \"#utility.yul\":8399:8437   */\n      tag_162\n        /* \"#utility.yul\":8431:8435   */\n      dup3\n        /* \"#utility.yul\":8425:8436   */\n      sload\n        /* \"#utility.yul\":8399:8437   */\n      tag_21\n      jump\t// in\n    tag_162:\n        /* \"#utility.yul\":8484:8551   */\n      tag_163\n        /* \"#utility.yul\":8544:8550   */\n      dup3\n        /* \"#utility.yul\":8536:8542   */\n      dup3\n        /* \"#utility.yul\":8530:8534   */\n      dup6\n        /* \"#utility.yul\":8484:8551   */\n      tag_57\n      jump\t// in\n    tag_163:\n        /* \"#utility.yul\":8578:8579   */\n      0x00\n        /* \"#utility.yul\":8602:8606   */\n      0x20\n        /* \"#utility.yul\":8589:8606   */\n      swap1\n      pop\n        /* \"#utility.yul\":8634:8636   */\n      0x1f\n        /* \"#utility.yul\":8626:8632   */\n      dup4\n        /* \"#utility.yul\":8623:8637   */\n      gt\n        /* \"#utility.yul\":8651:8652   */\n      0x01\n        /* \"#utility.yul\":8646:9264   */\n      dup2\n      eq\n      tag_165\n      jumpi\n        /* \"#utility.yul\":9308:9309   */\n      0x00\n        /* \"#utility.yul\":9325:9331   */\n      dup5\n        /* \"#utility.yul\":9322:9399   */\n      iszero\n      tag_166\n      jumpi\n        /* \"#utility.yul\":9374:9383   */\n      dup3\n        /* \"#utility.yul\":9369:9372   */\n      dup8\n        /* \"#utility.yul\":9365:9384   */\n      add\n        /* \"#utility.yul\":9359:9385   */\n      mload\n        /* \"#utility.yul\":9350:9385   */\n      swap1\n      pop\n        /* \"#utility.yul\":9322:9399   */\n    tag_166:\n        /* \"#utility.yul\":9425:9492   */\n      tag_167\n        /* \"#utility.yul\":9485:9491   */\n      dup6\n        /* \"#utility.yul\":9478:9483   */\n      dup3\n        /* \"#utility.yul\":9425:9492   */\n      tag_60\n      jump\t// in\n    tag_167:\n        /* \"#utility.yul\":9419:9423   */\n      dup7\n        /* \"#utility.yul\":9412:9493   */\n      sstore\n        /* \"#utility.yul\":9281:9503   */\n      pop\n        /* \"#utility.yul\":8616:9503   */\n      jump(tag_164)\n        /* \"#utility.yul\":8646:9264   */\n    tag_165:\n        /* \"#utility.yul\":8698:8702   */\n      0x1f\n        /* \"#utility.yul\":8694:8703   */\n      not\n        /* \"#utility.yul\":8686:8692   */\n      dup5\n        /* \"#utility.yul\":8682:8704   */\n      and\n        /* \"#utility.yul\":8732:8769   */\n      tag_168\n        /* \"#utility.yul\":8764:8768   */\n      dup7\n        /* \"#utility.yul\":8732:8769   */\n      tag_46\n      jump\t// in\n    tag_168:\n        /* \"#utility.yul\":8791:8792   */\n      0x00\n        /* \"#utility.yul\":8805:9013   */\n    tag_169:\n        /* \"#utility.yul\":8819:8826   */\n      dup3\n        /* \"#utility.yul\":8816:8817   */\n      dup2\n        /* \"#utility.yul\":8813:8827   */\n      lt\n        /* \"#utility.yul\":8805:9013   */\n      iszero\n      tag_171\n      jumpi\n        /* \"#utility.yul\":8898:8907   */\n      dup5\n        /* \"#utility.yul\":8893:8896   */\n      dup10\n        /* \"#utility.yul\":8889:8908   */\n      add\n        /* \"#utility.yul\":8883:8909   */\n      mload\n        /* \"#utility.yul\":8875:8881   */\n      dup3\n        /* \"#utility.yul\":8868:8910   */\n      sstore\n        /* \"#utility.yul\":8949:8950   */\n      0x01\n        /* \"#utility.yul\":8941:8947   */\n      dup3\n        /* \"#utility.yul\":8937:8951   */\n      add\n        /* \"#utility.yul\":8927:8951   */\n      swap2\n      pop\n        /* \"#utility.yul\":8996:8998   */\n      0x20\n        /* \"#utility.yul\":8985:8994   */\n      dup6\n        /* \"#utility.yul\":8981:8999   */\n      add\n        /* \"#utility.yul\":8968:8999   */\n      swap5\n      pop\n        /* \"#utility.yul\":8842:8846   */\n      0x20\n        /* \"#utility.yul\":8839:8840   */\n      dup2\n        /* \"#utility.yul\":8835:8847   */\n      add\n        /* \"#utility.yul\":8830:8847   */\n      swap1\n      pop\n        /* \"#utility.yul\":8805:9013   */\n      jump(tag_169)\n    tag_171:\n        /* \"#utility.yul\":9041:9047   */\n      dup7\n        /* \"#utility.yul\":9032:9039   */\n      dup4\n        /* \"#utility.yul\":9029:9048   */\n      lt\n        /* \"#utility.yul\":9026:9205   */\n      iszero\n      tag_172\n      jumpi\n        /* \"#utility.yul\":9099:9108   */\n      dup5\n        /* \"#utility.yul\":9094:9097   */\n      dup10\n        /* \"#utility.yul\":9090:9109   */\n      add\n        /* \"#utility.yul\":9084:9110   */\n      mload\n        /* \"#utility.yul\":9142:9190   */\n      tag_173\n        /* \"#utility.yul\":9184:9188   */\n      0x1f\n        /* \"#utility.yul\":9176:9182   */\n      dup10\n        /* \"#utility.yul\":9172:9189   */\n      and\n        /* \"#utility.yul\":9161:9170   */\n      dup3\n        /* \"#utility.yul\":9142:9190   */\n      tag_59\n      jump\t// in\n    tag_173:\n        /* \"#utility.yul\":9134:9140   */\n      dup4\n        /* \"#utility.yul\":9127:9191   */\n      sstore\n        /* \"#utility.yul\":9049:9205   */\n      pop\n        /* \"#utility.yul\":9026:9205   */\n    tag_172:\n        /* \"#utility.yul\":9251:9252   */\n      0x01\n        /* \"#utility.yul\":9247:9248   */\n      0x02\n        /* \"#utility.yul\":9239:9245   */\n      dup9\n        /* \"#utility.yul\":9235:9249   */\n      mul\n        /* \"#utility.yul\":9231:9253   */\n      add\n        /* \"#utility.yul\":9225:9229   */\n      dup9\n        /* \"#utility.yul\":9218:9254   */\n      sstore\n        /* \"#utility.yul\":8653:9264   */\n      pop\n      pop\n      pop\n        /* \"#utility.yul\":8616:9503   */\n    tag_164:\n      pop\n        /* \"#utility.yul\":8206:9509   */\n      pop\n      pop\n      pop\n        /* \"#utility.yul\":8114:9509   */\n      pop\n      pop\n      jump\t// out\n        /* \"#utility.yul\":9515:9695   */\n    tag_61:\n        /* \"#utility.yul\":9563:9640   */\n      0x4e487b7100000000000000000000000000000000000000000000000000000000\n        /* \"#utility.yul\":9560:9561   */\n      0x00\n        /* \"#utility.yul\":9553:9641   */\n      mstore\n        /* \"#utility.yul\":9660:9664   */\n      0x11\n        /* \"#utility.yul\":9657:9658   */\n      0x04\n        /* \"#utility.yul\":9650:9665   */\n      mstore\n        /* \"#utility.yul\":9684:9688   */\n      0x24\n        /* \"#utility.yul\":9681:9682   */\n      0x00\n        /* \"#utility.yul\":9674:9689   */\n      revert\n        /* \"#utility.yul\":9701:9934   */\n    tag_18:\n        /* \"#utility.yul\":9740:9743   */\n      0x00\n        /* \"#utility.yul\":9763:9787   */\n      tag_176\n        /* \"#utility.yul\":9781:9786   */\n      dup3\n        /* \"#utility.yul\":9763:9787   */\n      tag_43\n      jump\t// in\n    tag_176:\n        /* \"#utility.yul\":9754:9787   */\n      swap2\n      pop\n        /* \"#utility.yul\":9809:9875   */\n      0xffffffffffffffffffffffffffffffffffffffffffffffffffffffffffffffff\n        /* \"#utility.yul\":9802:9807   */\n      dup3\n        /* \"#utility.yul\":9799:9876   */\n      sub\n        /* \"#utility.yul\":9796:9899   */\n      tag_177\n      jumpi\n        /* \"#utility.yul\":9879:9897   */\n      tag_178\n      tag_61\n      jump\t// in\n    tag_178:\n        /* \"#utility.yul\":9796:9899   */\n    tag_177:\n        /* \"#utility.yul\":9926:9927   */\n      0x01\n        /* \"#utility.yul\":9919:9924   */\n      dup3\n        /* \"#utility.yul\":9915:9928   */\n      add\n        /* \"#utility.yul\":9908:9928   */\n      swap1\n      pop\n        /* \"#utility.yul\":9701:9934   */\n      swap2\n      swap1\n      pop\n      jump\t// out\n\n    auxdata: 0xa2646970667358221220930622ea4c696fdb05ceed61a65a1f7a6a3e46adee776deba487eeecfaaebe2d64736f6c634300080f0033\n}\n",
				"bytecode": {
					"linkReferences": {},
					"object": "608060405234801561001057600080fd5b50336000806101000a81548173ffffffffffffffffffffffffffffffffffffffff021916908373ffffffffffffffffffffffffffffffffffffffff160217905550610791806100606000396000f3fe608060405234801561001057600080fd5b50600436106100365760003560e01c806314097efe1461003b578063191384d114610057575b600080fd5b610055600480360381019061005091906102ec565b610076565b005b61005f6100f5565b60405161006d9291906103d6565b60405180910390f35b60008054906101000a900473ffffffffffffffffffffffffffffffffffffffff1673ffffffffffffffffffffffffffffffffffffffff163373ffffffffffffffffffffffffffffffffffffffff16036100f25780600290816100d89190610612565b50600160008154809291906100ec90610713565b91905055505b50565b60606000600260015481805461010a90610435565b80601f016020809104026020016040519081016040528092919081815260200182805461013690610435565b80156101835780601f1061015857610100808354040283529160200191610183565b820191906000526020600020905b81548152906001019060200180831161016657829003601f168201915b50505050509150915091509091565b6000604051905090565b600080fd5b600080fd5b600080fd5b600080fd5b6000601f19601f8301169050919050565b7f4e487b7100000000000000000000000000000000000000000000000000000000600052604160045260246000fd5b6101f9826101b0565b810181811067ffffffffffffffff82111715610218576102176101c1565b5b80604052505050565b600061022b610192565b905061023782826101f0565b919050565b600067ffffffffffffffff821115610257576102566101c1565b5b610260826101b0565b9050602081019050919050565b82818337600083830152505050565b600061028f61028a8461023c565b610221565b9050828152602081018484840111156102ab576102aa6101ab565b5b6102b684828561026d565b509392505050565b600082601f8301126102d3576102d26101a6565b5b81356102e384826020860161027c565b91505092915050565b6000602082840312156103025761030161019c565b5b600082013567ffffffffffffffff8111156103205761031f6101a1565b5b61032c848285016102be565b91505092915050565b600081519050919050565b600082825260208201905092915050565b60005b8381101561036f578082015181840152602081019050610354565b8381111561037e576000848401525b50505050565b600061038f82610335565b6103998185610340565b93506103a9818560208601610351565b6103b2816101b0565b840191505092915050565b6000819050919050565b6103d0816103bd565b82525050565b600060408201905081810360008301526103f08185610384565b90506103ff60208301846103c7565b9392505050565b7f4e487b7100000000000000000000000000000000000000000000000000000000600052602260045260246000fd5b6000600282049050600182168061044d57607f821691505b6020821081036104605761045f610406565b5b50919050565b60008190508160005260206000209050919050565b60006020601f8301049050919050565b600082821b905092915050565b6000600883026104c87fffffffffffffffffffffffffffffffffffffffffffffffffffffffffffffffff8261048b565b6104d2868361048b565b95508019841693508086168417925050509392505050565b6000819050919050565b600061050f61050a610505846103bd565b6104ea565b6103bd565b9050919050565b6000819050919050565b610529836104f4565b61053d61053582610516565b848454610498565b825550505050565b600090565b610552610545565b61055d818484610520565b505050565b5b818110156105815761057660008261054a565b600181019050610563565b5050565b601f8211156105c65761059781610466565b6105a08461047b565b810160208510156105af578190505b6105c36105bb8561047b565b830182610562565b50505b505050565b600082821c905092915050565b60006105e9600019846008026105cb565b1980831691505092915050565b600061060283836105d8565b9150826002028217905092915050565b61061b82610335565b67ffffffffffffffff811115610634576106336101c1565b5b61063e8254610435565b610649828285610585565b600060209050601f83116001811461067c576000841561066a578287015190505b61067485826105f6565b8655506106dc565b601f19841661068a86610466565b60005b828110156106b25784890151825560018201915060208501945060208101905061068d565b868310156106cf57848901516106cb601f8916826105d8565b8355505b6001600288020188555050505b505050505050565b7f4e487b7100000000000000000000000000000000000000000000000000000000600052601160045260246000fd5b600061071e826103bd565b91507fffffffffffffffffffffffffffffffffffffffffffffffffffffffffffffffff82036107505761074f6106e4565b5b60018201905091905056fea2646970667358221220930622ea4c696fdb05ceed61a65a1f7a6a3e46adee776deba487eeecfaaebe2d64736f6c634300080f0033",
					"opcodes": "PUSH1 0x80 PUSH1 0x40 MSTORE CALLVALUE DUP1 ISZERO PUSH2 0x10 JUMPI PUSH1 0x0 DUP1 REVERT JUMPDEST POP CALLER PUSH1 0x0 DUP1 PUSH2 0x100 EXP DUP2 SLOAD DUP2 PUSH20 0xFFFFFFFFFFFFFFFFFFFFFFFFFFFFFFFFFFFFFFFF MUL NOT AND SWAP1 DUP4 PUSH20 0xFFFFFFFFFFFFFFFFFFFFFFFFFFFFFFFFFFFFFFFF AND MUL OR SWAP1 SSTORE POP PUSH2 0x791 DUP1 PUSH2 0x60 PUSH1 0x0 CODECOPY PUSH1 0x0 RETURN INVALID PUSH1 0x80 PUSH1 0x40 MSTORE CALLVALUE DUP1 ISZERO PUSH2 0x10 JUMPI PUSH1 0x0 DUP1 REVERT JUMPDEST POP PUSH1 0x4 CALLDATASIZE LT PUSH2 0x36 JUMPI PUSH1 0x0 CALLDATALOAD PUSH1 0xE0 SHR DUP1 PUSH4 0x14097EFE EQ PUSH2 0x3B JUMPI DUP1 PUSH4 0x191384D1 EQ PUSH2 0x57 JUMPI JUMPDEST PUSH1 0x0 DUP1 REVERT JUMPDEST PUSH2 0x55 PUSH1 0x4 DUP1 CALLDATASIZE SUB DUP2 ADD SWAP1 PUSH2 0x50 SWAP2 SWAP1 PUSH2 0x2EC JUMP JUMPDEST PUSH2 0x76 JUMP JUMPDEST STOP JUMPDEST PUSH2 0x5F PUSH2 0xF5 JUMP JUMPDEST PUSH1 0x40 MLOAD PUSH2 0x6D SWAP3 SWAP2 SWAP1 PUSH2 0x3D6 JUMP JUMPDEST PUSH1 0x40 MLOAD DUP1 SWAP2 SUB SWAP1 RETURN JUMPDEST PUSH1 0x0 DUP1 SLOAD SWAP1 PUSH2 0x100 EXP SWAP1 DIV PUSH20 0xFFFFFFFFFFFFFFFFFFFFFFFFFFFFFFFFFFFFFFFF AND PUSH20 0xFFFFFFFFFFFFFFFFFFFFFFFFFFFFFFFFFFFFFFFF AND CALLER PUSH20 0xFFFFFFFFFFFFFFFFFFFFFFFFFFFFFFFFFFFFFFFF AND SUB PUSH2 0xF2 JUMPI DUP1 PUSH1 0x2 SWAP1 DUP2 PUSH2 0xD8 SWAP2 SWAP1 PUSH2 0x612 JUMP JUMPDEST POP PUSH1 0x1 PUSH1 0x0 DUP2 SLOAD DUP1 SWAP3 SWAP2 SWAP1 PUSH2 0xEC SWAP1 PUSH2 0x713 JUMP JUMPDEST SWAP2 SWAP1 POP SSTORE POP JUMPDEST POP JUMP JUMPDEST PUSH1 0x60 PUSH1 0x0 PUSH1 0x2 PUSH1 0x1 SLOAD DUP2 DUP1 SLOAD PUSH2 0x10A SWAP1 PUSH2 0x435 JUMP JUMPDEST DUP1 PUSH1 0x1F ADD PUSH1 0x20 DUP1 SWAP2 DIV MUL PUSH1 0x20 ADD PUSH1 0x40 MLOAD SWAP1 DUP2 ADD PUSH1 0x40 MSTORE DUP1 SWAP3 SWAP2 SWAP1 DUP2 DUP2 MSTORE PUSH1 0x20 ADD DUP3 DUP1 SLOAD PUSH2 0x136 SWAP1 PUSH2 0x435 JUMP JUMPDEST DUP1 ISZERO PUSH2 0x183 JUMPI DUP1 PUSH1 0x1F LT PUSH2 0x158 JUMPI PUSH2 0x100 DUP1 DUP4 SLOAD DIV MUL DUP4 MSTORE SWAP2 PUSH1 0x20 ADD SWAP2 PUSH2 0x183 JUMP JUMPDEST DUP3 ADD SWAP2 SWAP1 PUSH1 0x0 MSTORE PUSH1 0x20 PUSH1 0x0 KECCAK256 SWAP1 JUMPDEST DUP2 SLOAD DUP2 MSTORE SWAP1 PUSH1 0x1 ADD SWAP1 PUSH1 0x20 ADD DUP1 DUP4 GT PUSH2 0x166 JUMPI DUP3 SWAP1 SUB PUSH1 0x1F AND DUP3 ADD SWAP2 JUMPDEST POP POP POP POP POP SWAP2 POP SWAP2 POP SWAP2 POP SWAP1 SWAP2 JUMP JUMPDEST PUSH1 0x0 PUSH1 0x40 MLOAD SWAP1 POP SWAP1 JUMP JUMPDEST PUSH1 0x0 DUP1 REVERT JUMPDEST PUSH1 0x0 DUP1 REVERT JUMPDEST PUSH1 0x0 DUP1 REVERT JUMPDEST PUSH1 0x0 DUP1 REVERT JUMPDEST PUSH1 0x0 PUSH1 0x1F NOT PUSH1 0x1F DUP4 ADD AND SWAP1 POP SWAP2 SWAP1 POP JUMP JUMPDEST PUSH32 0x4E487B7100000000000000000000000000000000000000000000000000000000 PUSH1 0x0 MSTORE PUSH1 0x41 PUSH1 0x4 MSTORE PUSH1 0x24 PUSH1 0x0 REVERT JUMPDEST PUSH2 0x1F9 DUP3 PUSH2 0x1B0 JUMP JUMPDEST DUP2 ADD DUP2 DUP2 LT PUSH8 0xFFFFFFFFFFFFFFFF DUP3 GT OR ISZERO PUSH2 0x218 JUMPI PUSH2 0x217 PUSH2 0x1C1 JUMP JUMPDEST JUMPDEST DUP1 PUSH1 0x40 MSTORE POP POP POP JUMP JUMPDEST PUSH1 0x0 PUSH2 0x22B PUSH2 0x192 JUMP JUMPDEST SWAP1 POP PUSH2 0x237 DUP3 DUP3 PUSH2 0x1F0 JUMP JUMPDEST SWAP2 SWAP1 POP JUMP JUMPDEST PUSH1 0x0 PUSH8 0xFFFFFFFFFFFFFFFF DUP3 GT ISZERO PUSH2 0x257 JUMPI PUSH2 0x256 PUSH2 0x1C1 JUMP JUMPDEST JUMPDEST PUSH2 0x260 DUP3 PUSH2 0x1B0 JUMP JUMPDEST SWAP1 POP PUSH1 0x20 DUP2 ADD SWAP1 POP SWAP2 SWAP1 POP JUMP JUMPDEST DUP3 DUP2 DUP4 CALLDATACOPY PUSH1 0x0 DUP4 DUP4 ADD MSTORE POP POP POP JUMP JUMPDEST PUSH1 0x0 PUSH2 0x28F PUSH2 0x28A DUP5 PUSH2 0x23C JUMP JUMPDEST PUSH2 0x221 JUMP JUMPDEST SWAP1 POP DUP3 DUP2 MSTORE PUSH1 0x20 DUP2 ADD DUP5 DUP5 DUP5 ADD GT ISZERO PUSH2 0x2AB JUMPI PUSH2 0x2AA PUSH2 0x1AB JUMP JUMPDEST JUMPDEST PUSH2 0x2B6 DUP5 DUP3 DUP6 PUSH2 0x26D JUMP JUMPDEST POP SWAP4 SWAP3 POP POP POP JUMP JUMPDEST PUSH1 0x0 DUP3 PUSH1 0x1F DUP4 ADD SLT PUSH2 0x2D3 JUMPI PUSH2 0x2D2 PUSH2 0x1A6 JUMP JUMPDEST JUMPDEST DUP2 CALLDATALOAD PUSH2 0x2E3 DUP5 DUP3 PUSH1 0x20 DUP7 ADD PUSH2 0x27C JUMP JUMPDEST SWAP2 POP POP SWAP3 SWAP2 POP POP JUMP JUMPDEST PUSH1 0x0 PUSH1 0x20 DUP3 DUP5 SUB SLT ISZERO PUSH2 0x302 JUMPI PUSH2 0x301 PUSH2 0x19C JUMP JUMPDEST JUMPDEST PUSH1 0x0 DUP3 ADD CALLDATALOAD PUSH8 0xFFFFFFFFFFFFFFFF DUP2 GT ISZERO PUSH2 0x320 JUMPI PUSH2 0x31F PUSH2 0x1A1 JUMP JUMPDEST JUMPDEST PUSH2 0x32C DUP5 DUP3 DUP6 ADD PUSH2 0x2BE JUMP JUMPDEST SWAP2 POP POP SWAP3 SWAP2 POP POP JUMP JUMPDEST PUSH1 0x0 DUP2 MLOAD SWAP1 POP SWAP2 SWAP1 POP JUMP JUMPDEST PUSH1 0x0 DUP3 DUP3 MSTORE PUSH1 0x20 DUP3 ADD SWAP1 POP SWAP3 SWAP2 POP POP JUMP JUMPDEST PUSH1 0x0 JUMPDEST DUP4 DUP2 LT ISZERO PUSH2 0x36F JUMPI DUP1 DUP3 ADD MLOAD DUP2 DUP5 ADD MSTORE PUSH1 0x20 DUP2 ADD SWAP1 POP PUSH2 0x354 JUMP JUMPDEST DUP4 DUP2 GT ISZERO PUSH2 0x37E JUMPI PUSH1 0x0 DUP5 DUP5 ADD MSTORE JUMPDEST POP POP POP POP JUMP JUMPDEST PUSH1 0x0 PUSH2 0x38F DUP3 PUSH2 0x335 JUMP JUMPDEST PUSH2 0x399 DUP2 DUP6 PUSH2 0x340 JUMP JUMPDEST SWAP4 POP PUSH2 0x3A9 DUP2 DUP6 PUSH1 0x20 DUP7 ADD PUSH2 0x351 JUMP JUMPDEST PUSH2 0x3B2 DUP2 PUSH2 0x1B0 JUMP JUMPDEST DUP5 ADD SWAP2 POP POP SWAP3 SWAP2 POP POP JUMP JUMPDEST PUSH1 0x0 DUP2 SWAP1 POP SWAP2 SWAP1 POP JUMP JUMPDEST PUSH2 0x3D0 DUP2 PUSH2 0x3BD JUMP JUMPDEST DUP3 MSTORE POP POP JUMP JUMPDEST PUSH1 0x0 PUSH1 0x40 DUP3 ADD SWAP1 POP DUP2 DUP2 SUB PUSH1 0x0 DUP4 ADD MSTORE PUSH2 0x3F0 DUP2 DUP6 PUSH2 0x384 JUMP JUMPDEST SWAP1 POP PUSH2 0x3FF PUSH1 0x20 DUP4 ADD DUP5 PUSH2 0x3C7 JUMP JUMPDEST SWAP4 SWAP3 POP POP POP JUMP JUMPDEST PUSH32 0x4E487B7100000000000000000000000000000000000000000000000000000000 PUSH1 0x0 MSTORE PUSH1 0x22 PUSH1 0x4 MSTORE PUSH1 0x24 PUSH1 0x0 REVERT JUMPDEST PUSH1 0x0 PUSH1 0x2 DUP3 DIV SWAP1 POP PUSH1 0x1 DUP3 AND DUP1 PUSH2 0x44D JUMPI PUSH1 0x7F DUP3 AND SWAP2 POP JUMPDEST PUSH1 0x20 DUP3 LT DUP2 SUB PUSH2 0x460 JUMPI PUSH2 0x45F PUSH2 0x406 JUMP JUMPDEST JUMPDEST POP SWAP2 SWAP1 POP JUMP JUMPDEST PUSH1 0x0 DUP2 SWAP1 POP DUP2 PUSH1 0x0 MSTORE PUSH1 0x20 PUSH1 0x0 KECCAK256 SWAP1 POP SWAP2 SWAP1 POP JUMP JUMPDEST PUSH1 0x0 PUSH1 0x20 PUSH1 0x1F DUP4 ADD DIV SWAP1 POP SWAP2 SWAP1 POP JUMP JUMPDEST PUSH1 0x0 DUP3 DUP3 SHL SWAP1 POP SWAP3 SWAP2 POP POP JUMP JUMPDEST PUSH1 0x0 PUSH1 0x8 DUP4 MUL PUSH2 0x4C8 PUSH32 0xFFFFFFFFFFFFFFFFFFFFFFFFFFFFFFFFFFFFFFFFFFFFFFFFFFFFFFFFFFFFFFFF DUP3 PUSH2 0x48B JUMP JUMPDEST PUSH2 0x4D2 DUP7 DUP4 PUSH2 0x48B JUMP JUMPDEST SWAP6 POP DUP1 NOT DUP5 AND SWAP4 POP DUP1 DUP7 AND DUP5 OR SWAP3 POP POP POP SWAP4 SWAP3 POP POP POP JUMP JUMPDEST PUSH1 0x0 DUP2 SWAP1 POP SWAP2 SWAP1 POP JUMP JUMPDEST PUSH1 0x0 PUSH2 0x50F PUSH2 0x50A PUSH2 0x505 DUP5 PUSH2 0x3BD JUMP JUMPDEST PUSH2 0x4EA JUMP JUMPDEST PUSH2 0x3BD JUMP JUMPDEST SWAP1 POP SWAP2 SWAP1 POP JUMP JUMPDEST PUSH1 0x0 DUP2 SWAP1 POP SWAP2 SWAP1 POP JUMP JUMPDEST PUSH2 0x529 DUP4 PUSH2 0x4F4 JUMP JUMPDEST PUSH2 0x53D PUSH2 0x535 DUP3 PUSH2 0x516 JUMP JUMPDEST DUP5 DUP5 SLOAD PUSH2 0x498 JUMP JUMPDEST DUP3 SSTORE POP POP POP POP JUMP JUMPDEST PUSH1 0x0 SWAP1 JUMP JUMPDEST PUSH2 0x552 PUSH2 0x545 JUMP JUMPDEST PUSH2 0x55D DUP2 DUP5 DUP5 PUSH2 0x520 JUMP JUMPDEST POP POP POP JUMP JUMPDEST JUMPDEST DUP2 DUP2 LT ISZERO PUSH2 0x581 JUMPI PUSH2 0x576 PUSH1 0x0 DUP3 PUSH2 0x54A JUMP JUMPDEST PUSH1 0x1 DUP2 ADD SWAP1 POP PUSH2 0x563 JUMP JUMPDEST POP POP JUMP JUMPDEST PUSH1 0x1F DUP3 GT ISZERO PUSH2 0x5C6 JUMPI PUSH2 0x597 DUP2 PUSH2 0x466 JUMP JUMPDEST PUSH2 0x5A0 DUP5 PUSH2 0x47B JUMP JUMPDEST DUP2 ADD PUSH1 0x20 DUP6 LT ISZERO PUSH2 0x5AF JUMPI DUP2 SWAP1 POP JUMPDEST PUSH2 0x5C3 PUSH2 0x5BB DUP6 PUSH2 0x47B JUMP JUMPDEST DUP4 ADD DUP3 PUSH2 0x562 JUMP JUMPDEST POP POP JUMPDEST POP POP POP JUMP JUMPDEST PUSH1 0x0 DUP3 DUP3 SHR SWAP1 POP SWAP3 SWAP2 POP POP JUMP JUMPDEST PUSH1 0x0 PUSH2 0x5E9 PUSH1 0x0 NOT DUP5 PUSH1 0x8 MUL PUSH2 0x5CB JUMP JUMPDEST NOT DUP1 DUP4 AND SWAP2 POP POP SWAP3 SWAP2 POP POP JUMP JUMPDEST PUSH1 0x0 PUSH2 0x602 DUP4 DUP4 PUSH2 0x5D8 JUMP JUMPDEST SWAP2 POP DUP3 PUSH1 0x2 MUL DUP3 OR SWAP1 POP SWAP3 SWAP2 POP POP JUMP JUMPDEST PUSH2 0x61B DUP3 PUSH2 0x335 JUMP JUMPDEST PUSH8 0xFFFFFFFFFFFFFFFF DUP2 GT ISZERO PUSH2 0x634 JUMPI PUSH2 0x633 PUSH2 0x1C1 JUMP JUMPDEST JUMPDEST PUSH2 0x63E DUP3 SLOAD PUSH2 0x435 JUMP JUMPDEST PUSH2 0x649 DUP3 DUP3 DUP6 PUSH2 0x585 JUMP JUMPDEST PUSH1 0x0 PUSH1 0x20 SWAP1 POP PUSH1 0x1F DUP4 GT PUSH1 0x1 DUP2 EQ PUSH2 0x67C JUMPI PUSH1 0x0 DUP5 ISZERO PUSH2 0x66A JUMPI DUP3 DUP8 ADD MLOAD SWAP1 POP JUMPDEST PUSH2 0x674 DUP6 DUP3 PUSH2 0x5F6 JUMP JUMPDEST DUP7 SSTORE POP PUSH2 0x6DC JUMP JUMPDEST PUSH1 0x1F NOT DUP5 AND PUSH2 0x68A DUP7 PUSH2 0x466 JUMP JUMPDEST PUSH1 0x0 JUMPDEST DUP3 DUP2 LT ISZERO PUSH2 0x6B2 JUMPI DUP5 DUP10 ADD MLOAD DUP3 SSTORE PUSH1 0x1 DUP3 ADD SWAP2 POP PUSH1 0x20 DUP6 ADD SWAP5 POP PUSH1 0x20 DUP2 ADD SWAP1 POP PUSH2 0x68D JUMP JUMPDEST DUP7 DUP4 LT ISZERO PUSH2 0x6CF JUMPI DUP5 DUP10 ADD MLOAD PUSH2 0x6CB PUSH1 0x1F DUP10 AND DUP3 PUSH2 0x5D8 JUMP JUMPDEST DUP4 SSTORE POP JUMPDEST PUSH1 0x1 PUSH1 0x2 DUP9 MUL ADD DUP9 SSTORE POP POP POP JUMPDEST POP POP POP POP POP POP JUMP JUMPDEST PUSH32 0x4E487B7100000000000000000000000000000000000000000000000000000000 PUSH1 0x0 MSTORE PUSH1 0x11 PUSH1 0x4 MSTORE PUSH1 0x24 PUSH1 0x0 REVERT JUMPDEST PUSH1 0x0 PUSH2 0x71E DUP3 PUSH2 0x3BD JUMP JUMPDEST SWAP2 POP PUSH32 0xFFFFFFFFFFFFFFFFFFFFFFFFFFFFFFFFFFFFFFFFFFFFFFFFFFFFFFFFFFFFFFFF DUP3 SUB PUSH2 0x750 JUMPI PUSH2 0x74F PUSH2 0x6E4 JUMP JUMPDEST JUMPDEST PUSH1 0x1 DUP3 ADD SWAP1 POP SWAP2 SWAP1 POP JUMP INVALID LOG2 PUSH5 0x6970667358 0x22 SLT KECCAK256 SWAP4 MOD 0x22 0xEA 0x4C PUSH10 0x6FDB05CEED61A65A1F7A PUSH11 0x3E46ADEE776DEBA487EEEC STATICCALL 0xAE 0xBE 0x2D PUSH5 0x736F6C6343 STOP ADDMOD 0xF STOP CALLER "
				},
				"gasEstimates": {
					"creation": {
						"codeDepositCost": "387400",
						"executionCost": "24690",
						"totalCost": "412090"
					},
					"external": {
						"updatingTheMessage(string)": "infinite",
						"viewMessage()": "infinite"
					}
				},
				"methodIdentifiers": {
					"updatingTheMessage(string)": "14097efe",
					"viewMessage()": "191384d1"
				}
			},
			"storageLayout": {
				"storage": [
					{
						"astId": 3,
						"contract": "contracts/BlockchainMessenger.sol:blockchainMessenger",
						"label": "owner",
						"offset": 0,
						"slot": "0",
						"type": "t_address"
					},
					{
						"astId": 5,
						"contract": "contracts/BlockchainMessenger.sol:blockchainMessenger",
						"label": "changeCounter",
						"offset": 0,
						"slot": "1",
						"type": "t_uint256"
					},
					{
						"astId": 7,
						"contract": "contracts/BlockchainMessenger.sol:blockchainMessenger",
						"label": "theMessage",
						"offset": 0,
						"slot": "2",
						"type": "t_string_storage"
					}
				],
				"types": {
					"t_address": {
						"encoding": "inplace",
						"label": "address",
						"numberOfBytes": "20"
					},
					"t_string_storage": {
						"encoding": "bytes",
						"label": "string",
						"numberOfBytes": "32"
					},
					"t_uint256": {
						"encoding": "inplace",
						"label": "uint256",
						"numberOfBytes": "32"
					}
				}
			},
			"userdoc": {
				"kind": "user",
				"methods": {},
				"version": 1
			}
		}
	}
}