{
	"data": {
		"bytecode": {
			"linkReferences": {},
			"object": "608060405234801561001057600080fd5b5060f78061001f6000396000f3fe6080604052348015600f57600080fd5b506004361060285760003560e01c8063eb1b30d914602d575b600080fd5b60436004803603810190603f91906099565b6045565b005b806000806101000a81548160ff02191690831515021790555050565b600080fd5b60008115159050919050565b6079816066565b8114608357600080fd5b50565b6000813590506093816072565b92915050565b60006020828403121560ac5760ab6061565b5b600060b8848285016086565b9150509291505056fea264697066735822122095db9193d6a1d64aa5638f761e8023c8d12b11c557c94473b6658a1e57f39ee164736f6c634300080e0033",
			"opcodes": "PUSH1 0x80 PUSH1 0x40 MSTORE CALLVALUE DUP1 ISZERO PUSH2 0x10 JUMPI PUSH1 0x0 DUP1 REVERT JUMPDEST POP PUSH1 0xF7 DUP1 PUSH2 0x1F PUSH1 0x0 CODECOPY PUSH1 0x0 RETURN INVALID PUSH1 0x80 PUSH1 0x40 MSTORE CALLVALUE DUP1 ISZERO PUSH1 0xF JUMPI PUSH1 0x0 DUP1 REVERT JUMPDEST POP PUSH1 0x4 CALLDATASIZE LT PUSH1 0x28 JUMPI PUSH1 0x0 CALLDATALOAD PUSH1 0xE0 SHR DUP1 PUSH4 0xEB1B30D9 EQ PUSH1 0x2D JUMPI JUMPDEST PUSH1 0x0 DUP1 REVERT JUMPDEST PUSH1 0x43 PUSH1 0x4 DUP1 CALLDATASIZE SUB DUP2 ADD SWAP1 PUSH1 0x3F SWAP2 SWAP1 PUSH1 0x99 JUMP JUMPDEST PUSH1 0x45 JUMP JUMPDEST STOP JUMPDEST DUP1 PUSH1 0x0 DUP1 PUSH2 0x100 EXP DUP2 SLOAD DUP2 PUSH1 0xFF MUL NOT AND SWAP1 DUP4 ISZERO ISZERO MUL OR SWAP1 SSTORE POP POP JUMP JUMPDEST PUSH1 0x0 DUP1 REVERT JUMPDEST PUSH1 0x0 DUP2 ISZERO ISZERO SWAP1 POP SWAP2 SWAP1 POP JUMP JUMPDEST PUSH1 0x79 DUP2 PUSH1 0x66 JUMP JUMPDEST DUP2 EQ PUSH1 0x83 JUMPI PUSH1 0x0 DUP1 REVERT JUMPDEST POP JUMP JUMPDEST PUSH1 0x0 DUP2 CALLDATALOAD SWAP1 POP PUSH1 0x93 DUP2 PUSH1 0x72 JUMP JUMPDEST SWAP3 SWAP2 POP POP JUMP JUMPDEST PUSH1 0x0 PUSH1 0x20 DUP3 DUP5 SUB SLT ISZERO PUSH1 0xAC JUMPI PUSH1 0xAB PUSH1 0x61 JUMP JUMPDEST JUMPDEST PUSH1 0x0 PUSH1 0xB8 DUP5 DUP3 DUP6 ADD PUSH1 0x86 JUMP JUMPDEST SWAP2 POP POP SWAP3 SWAP2 POP POP JUMP INVALID LOG2 PUSH5 0x6970667358 0x22 SLT KECCAK256 SWAP6 0xDB SWAP2 SWAP4 0xD6 LOG1 0xD6 0x4A 0xA5 PUSH4 0x8F761E80 0x23 0xC8 0xD1 0x2B GT 0xC5 JUMPI 0xC9 DIFFICULTY PUSH20 0xB6658A1E57F39EE164736F6C634300080E003300 "
		},
		"gasEstimates": {
			"creation": {
				"codeDepositCost": "49400",
				"executionCost": "99",
				"totalCost": "49499"
			},
			"external": {
				"setMyBool(bool)": "24657"
			}
		},
		"methodIdentifiers": {
			"setMyBool(bool)": "eb1b30d9"
		}
	},
	"abi": [
		{
			"inputs": [
				{
					"internalType": "bool",
					"name": "_myBool",
					"type": "bool"
				}
			],
			"name": "setMyBool",
			"outputs": [],
			"stateMutability": "nonpayable",
			"type": "function"
		}
	]
}